:100000000C9438010C9469010C9469010C946901F9
:100010000C9469010C9469010C9469010C946901B8
:100020000C9469010C9469010C9469010C946901A8
:100030000C9469010C9469010C9469010C94690198
:100040000C9469010C9469010C9469010C94690188
:100050000C9469010C9469010C9469010C94CF040F
:100060000C9469010C9469010C9469010C94690168
:100070000C9469010C9469010C9469010C94690158
:100080000C9469010C9469010C9469010C94690148
:100090000C9469010C9469010C9469010C94690138
:1000A0000C9469010C9469010C9469010C94690128
:1000B0000C9469010C9469010C9469010C94690118
:1000C0000C9469010C9469010C9469010C94690108
:1000D0000C9469010C9469010C9469010C946901F8
:1000E0000C9469010C9476020C94EC020C9472024C
:1000F0000C9449020C9489020C9464020C948002C2
:100100000C947C020C9484020C9431030C944F02E6
:100110000C9457020C94BB020C94FE010C945E02EA
:100120000C945B020C9479040C9468020C948A027F
:100130000C948E020C946E020C9453020C942C03BB
:100140000C94B2070C9434080C9430030000210086
:10015000240027002A002D00300033000101000098
:10016000040107010A0100002200250028002B00DD
:100170002E003100340002010000050108010B01CE
:10018000000020002300260029002C002F00320050
:100190000001000003010601090105050505070529
:1001A00008080808020202020A0A080804040404F3
:1001B000010101010101010103030303030303031F
:1001C000040707070C0C0C0C0C0C0C0C02020202AE
:1001D00006060606060606060B0B0B0B0B0B0B0B97
:1001E0000102102020080810204010204080020149
:1001F000020108040201010204081020408080402E
:10020000201008040201800402018040201008042C
:1002100002010804020101020408102040800102CA
:1002200004081020408000000A0B02090C0D0E0883
:1002300007030401000000000000000000000000AF
:1002400000000000000000000000000000000000AE
:10025000000012111000000000000000000000006B
:10026000000000000000000000000000B207340899
:1002700011241FBECFEFD1E2DEBFCDBF00E00CBF27
:1002800022E0ACE5B2E001C01D92AC3FB207E1F75D
:1002900012E0A0E0B2E0ECEFF4E100E00BBF02C03E
:1002A00007900D92AC35B107D9F711E0C7E3D1E063
:1002B00000E006C021970109802FFE010E94450839
:1002C000C633D10780E00807A9F70E9455050C94B2
:1002D0006C0A0C94000096E0899FD0011124A55966
:1002E000BD4F90967C936E935F9791E091969C930F
:1002F0009197E091D802F091D9029091D702992379
:1003000039F0309751F0811108C08091870219941B
:10031000309719F05C968C91FACF0895CF92DF92C6
:10032000EF92FF920F931F9396E0899FF0011124A3
:10033000E559FD4F11A2278D30A12130310551F132
:1003400078F02230310509F451C02330310509F429
:1003500052C01F910F91FF90EF90DF90CF900895C2
:100360006623B9F361E070E00E946B012FB7F89447
:100370008091670290916802A0916902B0916A022F
:100380002FBF8093C3029093C402A093C502B09381
:10039000C602DFCF9FB7F894C0906702D090680282
:1003A000E0906902F0906A029FBF0091C302109131
:1003B000C4022091C5023091C602C01AD10AE20AD5
:1003C000F30A0091D5021091D60230E020E00C151E
:1003D0001D052E053F0550F462E070E01F910F915E
:1003E000FF90EF90DF90CF900C946B016111B1CF33
:1003F00063E070E0F3CF70E060E0F0CFAF92BF92C7
:10040000CF92DF92EF92FF920F931F93CF93DF93E0
:100410006C017B018B01040F151FEB015E01AE180F
:10042000BF08C017D10759F06991D601ED91FC9131
:100430000190F081E02DC6011995892B79F7C5014E
:10044000DF91CF911F910F91FF90EF90DF90CF90B0
:10045000BF90AF9008958150823108F05AC0E82FC4
:10046000F0E08827E95CFD4F8F4F0C944508570258
:100470005B0249024F02530289025E026402680273
:100480006E02720276027C028002890284028A0273
:100490008E02809180008F778093800008958091F4
:1004A00080008F7DF9CF80918000877FF5CF84B564
:1004B0008F7784BD089584B58F7DFBCF8091B00088
:1004C0008F778093B00008958091B0008F7DF9CF31
:1004D000809190008F778093900008958091900094
:1004E0008F7DF9CF80919000877FF5CF8091A0001C
:1004F0008F778093A00008958091A0008F7DF9CF21
:100500008091A000877FF5CF809120018F77809325
:1005100020010895809120018F7DF9CF80912001E5
:10052000877FF5CFCF93DF93282F30E0F901EA5D85
:10053000FD4F8491F901E052FE4FD491F901E65646
:10054000FE4FC491CC23A1F081110E942B02EC2F0D
:10055000F0E0EE0FFF1FE058FE4FA591B491EC9133
:10056000ED2381E090E009F480E0DF91CF910895E0
:1005700080E090E0FACF862F0C9492021F93CF93E5
:10058000DF93282F30E0F901EA5DFD4F8491F901F6
:10059000E052FE4FD491F901E656FE4FC491CC23B0
:1005A000A9F0162F81110E942B02EC2FF0E0EE0F24
:1005B000FF1FEA59FE4FA591B4918FB7F894EC91C3
:1005C000111108C0D095DE23DC938FBFDF91CF914E
:1005D0001F910895DE2BF8CF862F642F0C94BE0256
:1005E000CF93DF9390E0FC01E052FE4F24918656BA
:1005F0009E4FFC0184918823C9F090E0880F991FD9
:10060000FC01E45BFE4FA591B491FC01EA59FE4F59
:10061000C591D49161110DC09FB7F8948C9120952C
:1006200082238C938881282328839FBFDF91CF91D9
:100630000895623051F49FB7F8943C91822F8095D1
:1006400083238C93E8812E2BEFCF8FB7F894EC9116
:100650002E2B2C938FBFEACF862F642F0C94F002A1
:10066000089590E080E00895CF93DF93EC0160E07F
:100670008E810E94BE0261E08E810E94BE0260E017
:100680008E810E94BE028BE891E00197F1F7DF9125
:10069000CF910895CF92DF92EF92FF920F931F9325
:1006A000CF93DF936C017C0187E0E80EF11CD0E072
:1006B000C0E0062F10E0B8010C2E02C075956795BA
:1006C0000A94E2F76170F70181917F010E94BE02F6
:1006D0002196C430D10579F7C601DF91CF911F91E2
:1006E0000F91FF90EF90DF90CF900C943403CF9256
:1006F000DF92EF92FF920F931F93CF93DF93EC0162
:10070000F62E642F8C810E94BE028D818F3F19F0DE
:1007100060E00E94BE020F2D10E08F8584FF25C08F
:100720006E0187E0C80ED11CF12CE12CB8010E2C13
:1007300002C0759567950A94E2F76170F6018191A0
:100740006F010E94BE02FFEFEF1AFF0A88E0E81671
:10075000F10461F7CE01DF91CF911F910F91FF90CE
:10076000EF90DF90CF900C943403B80184E075953E
:1007700067958A95E1F7CE010E944A036F2DCE015D
:10078000DF91CF911F910F91FF90EF90DF90CF906D
:100790000C944A0340E0682F80EE92E00C947703BB
:1007A00081E00E94CA038BE39FE10197F1F708956E
:1007B000CF93DF93823029F49091EF029860909369
:1007C000EF028093F3021092F40280E48093F5022A
:1007D00080E18093F60280E58093F70261E08091EA
:1007E000E4020E94F0028091E5028F3F19F061E07F
:1007F0000E94F00261E08091E6020E94F002C0EEE9
:10080000D2E09E01205E32408091EF0284FD0BC059
:1008100084E090E021962817390744F461E08E8146
:100820000E94F002EECF88E090E0F4CF8BE39DE0F1
:100830000197F1F760E08091E4020E94BE0260E05F
:100840008091E6020E94BE028091E5028F3F19F07E
:1008500060E00E94BE028091EF0284FD34C063E03C
:1008600080EE92E00E944A03CBE4D6E4CE010197E9
:10087000F1F763E080EE92E00E944A032197F1F7DE
:1008800063E080EE92E00E944A0383E592E00197E4
:10089000F1F762E080EE92E00E944A038091EF025D
:1008A00080620E94CA0384E08093F0028CE00E9480
:1008B000CA030E94D00382E08093F10286E0DF91B8
:1008C000CF910C94CA0380620E94CA038BE496E421
:1008D0000197F1F78091EF0280620E94CA0383E5DD
:1008E00092E00197F1F78091EF0280620E94CA03C3
:1008F000D5CF41E00E94770381E090E008950F9307
:100900001F93CF93DF93EC0188819981009759F071
:100910002A813B812617370730F081E0DF91CF91A4
:100920001F910F9108958B016F5F7F4F0E94720995
:10093000009759F0998388831B830A832C813D811A
:10094000232B59F7FC011082E8CF80E0E7CF70E05D
:1009500060E08AED92E00E947F042091DA023091FB
:10096000DB02811113C02115310519F0C9010E9464
:10097000E9081092DB021092DA021092DF02109264
:10098000DE021092DD021092DC0208951092DF0266
:100990001092DE0266E572E0C9010C94650A1F92AE
:1009A0000F920FB60F9211242F933F938F939F9323
:1009B000AF93BF938091670290916802A091690202
:1009C000B0916A023091600223E0230F2D3758F571
:1009D0000196A11DB11D2093600280936702909340
:1009E0006802A0936902B0936A0280915C029091C0
:1009F0005D02A0915E02B0915F020196A11DB11D42
:100A000080935C0290935D02A0935E02B0935F02BC
:100A1000BF91AF919F918F913F912F910F900FBEFA
:100A20000F901F90189526E8230F0296A11DB11D67
:100A3000D2CFEF92FF920F931F93CF93DF93EC01EE
:100A40007B01198218821B821A821D821C82FB0183
:100A500001900020E9F731978F01061B170BB801B1
:100A60000E947F0428813981811113C0211531052D
:100A700019F0C9010E94E908198218821D821C829E
:100A80001B821A82DF91CF911F910F91FF90EF90FF
:100A900008951D830C83B701C901DF91CF911F9188
:100AA0000F91FF90EF900C94650ACF93DF931F9204
:100AB0001F92CDB7DEB7789484B5826084BD84B5CB
:100AC000816084BD85B5826085BD85B5816085BD49
:100AD00080916E00816080936E0010928100809101
:100AE0008100826080938100809181008160809389
:100AF0008100809180008160809380008091B100AE
:100B000084608093B1008091B00081608093B000D8
:100B1000809191008260809391008091910081602A
:100B200080939100809190008160809390008091EB
:100B3000A10082608093A1008091A10081608093D8
:100B4000A1008091A00081608093A000809121018C
:100B50008260809321018091210181608093210135
:100B60008091200181608093200180917A008460CF
:100B700080937A0080917A00826080937A008091DD
:100B80007A00816080937A0080917A0080688093F7
:100B90007A001092C10082E00E94D8030E94D00324
:100BA000412C512C3201439440E0A42E40E0B42E5D
:100BB00051E05093D7028FB7F8944091670250915B
:100BC00068026091690270916A028FBF8091C702CA
:100BD0009091C802A091C902B091CA02481B590B5A
:100BE0006A0B7B0B8091D3029091D402B0E0A0E01D
:100BF00084179507A607B707D8F610E08091D102B1
:100C0000181760F4E091CD02F091CE02E10FF11DD2
:100C100062E080810E94F0021F5FF0CF312C809152
:100C2000D202381608F061C0E32CF12CE091CF021B
:100C3000F091D002EE0DFF1D61E080810E94F00274
:100C4000E091CF02F091D002EE0DFF1D60E08081B7
:100C50000E94BE02D301C201032C04C0880F991F59
:100C6000AA1FBB1F0A94D2F74C016C01C094D09408
:100C7000212C8091D102281608F5022D10E0E09178
:100C8000CD02F091CE02E00FF11F80810E9492020E
:100C90000C5F1F4F000F111FF801E559FD4F892B05
:100CA00041F48081918188299929918380832394BB
:100CB000E0CF808191818C219D21F7CFE091CF02FF
:100CC000F091D002EE0DFF1D61E080810E94BE0216
:100CD0008091CF029091D002E80EF91E60E0F701FA
:100CE00080810E94F00233949ACF0BE612E0F80163
:100CF000878D90A1892B31F4148E8FEF9FEF968F03
:100D0000858F11A2369692E0E73AF90789F7D12C40
:100D10008091D102D81608F053C0C12CED2CF12CD3
:100D2000EE0CFF1CF701ED58FD4F7F012091D20220
:100D3000C21608F043C0F701608171810C2C02C01B
:100D4000769567950A94E2F7D29E900111242C0DB6
:100D5000311DEBE6F2E080E0458D568D2417350716
:100D600009F4D2C08F5F36968A30B1F760FF24C095
:100D7000EBE6F2E090E080E0448D411118C0E09194
:100D8000CB02F091CC02E20FF31F408156E0589F56
:100D9000F001599FF00D1124E559FD4F448F368F16
:100DA000258F10A2178E61E00E948E0105C001966A
:100DB00036968A30910501F7C394B8CFD394A8CF63
:100DC00080E0F80191A19111892F0A5F1F4FF2E095
:100DD000073A1F07B1F79FB7F89440916702509107
:100DE00068026091690270916A029FBF4093C702D6
:100DF0005093C8026093C9027093CA02882309F411
:100E0000D7CE80918C02882309F4D2CE80918A02B9
:100E100090918B02019709F0CBCE809187028823B5
:100E200009F4C6CE8A32C1F52091DE023091DF028C
:100E3000809165029091660228173907D1F480915C
:100E4000DA029091DB026091610270916202009778
:100E500009F45CC06115710539F4232B09F464C0F1
:100E6000FC01808190E05DC00E945C0A5AC0E1E014
:100E700061C0E091F302E23068F4E150F0E0E0524A
:100E8000FD4F848980680E94CA0341E150E065E417
:100E900072E05BC0E1E0F2CF833229F40E94A70444
:100EA0000E94D00358C089831A820091DE021091FB
:100EB000DF020F5F1F4FB8018AED92E00E947F04AE
:100EC000882399F02091DA023091DB028091DE02D2
:100ED0009091DF02BE016F5F7F4F820F931F0E94D0
:100EE000650A1093DF020093DE020E94D003409156
:100EF000DE025091DF026091DA027091DB0280EE37
:100F000092E00E94FE0127C061704ECF611571050D
:100F100059F0232B49F0FB01808190E09195819558
:100F20009109892B09F0A5CFE091F302E23008F096
:100F30009ECFE150F0E0E052FD4F848980680E942E
:100F4000CA0340E150E064E372E080EE92E00E9468
:100F5000FE010E94A704A114B10409F429CE0E9445
:100F6000000026CE1092E3021092E2028CE292E0A0
:100F70009093E1028093E0028DE08093E4028FEF92
:100F80008093E5028CE08093E60288E08093E7029C
:100F900089E08093E8028AE08093E9028BE0809305
:100FA000EA021092EB021092EC021092ED02109203
:100FB000EE021092EF0281E00E94D80310926D02BF
:100FC00010927102109270021092720282E292E00C
:100FD00090936C0280936B02E7E8F2E01082148237
:100FE00013821582369682E0E33CF807B9F784E075
:100FF00092E09093CE028093CD0280E092E09093B5
:10100000D0028093CF0284E08093D1028093D202F9
:1010100088E092E09093CC028093CB028AE090E04B
:101020009093D4028093D30284EF91E09093D60200
:101030008093D5021092D9021092D8021092C70262
:101040001092C8021092C9021092CA021092D702DE
:1010500067E572E081E692E00E94190566E572E0BC
:101060008AED92E00C9419058091DA029091DB02EE
:10107000009711F00E94E90880916102909162024C
:10108000009711F00C94E9080895EE0FFF1F881FD8
:101090008BBF0790F691E02D19940F931F93CF9378
:1010A000DF938230910510F482E090E0E091FA0243
:1010B000F091FB0230E020E0B0E0A0E0309799F43E
:1010C0002115310509F44AC0281B390B243031059C
:1010D000D8F58A819B816115710589F1FB019383A4
:1010E0008283FE0111C04081518102811381481722
:1010F0005907E0F04817590799F4109761F01296D4
:101100000C93129713961C933296CF01DF91CF91D7
:101110001F910F9108950093FA021093FB02F4CFF0
:101120002115310551F04217530738F0A901DB01B1
:101130009A01BD01DF01F801C1CFEF01F9CF909312
:10114000FB028093FA02CDCFFE01E20FF31F8193E1
:1011500091932250310939832883D7CF2091F80207
:101160003091F902232B41F420911A0230911B0295
:101170003093F9022093F80220911802309119025D
:101180002115310541F42DB73EB740911C02509115
:101190001D02241B350BE091F802F091F902E217D1
:1011A000F307A0F42E1B3F0B2817390778F0AC018A
:1011B0004E5F5F4F2417350748F04E0F5F1F509367
:1011C000F9024093F802819391939FCFF0E0E0E021
:1011D0009CCFCF93DF930097E9F0FC013297138205
:1011E0001282A091FA02B091FB02ED0130E020E002
:1011F0001097A1F420813181820F931F2091F80272
:101200003091F9022817390709F061C0F093F9020B
:10121000E093F802DF91CF910895EA01CE17DF073E
:10122000E8F54A815B819E0141155105B1F7E9015D
:10123000FB83EA8349915991C40FD51FEC17FD0731
:1012400061F4808191810296840F951FE901998351
:101250008883828193819B838A83F0E0E0E0129609
:101260008D919C9113970097B9F52D913C91119711
:10127000CD010296820F931F2091F8023091F9025E
:101280002817390739F6309751F51092FB02109262
:10129000FA02B093F902A093F802BCCFD383C283C1
:1012A00040815181840F951FC817D90761F44E5FA3
:1012B0005F4F88819981480F591F518340838A81EC
:1012C0009B81938382832115310509F0B0CFF09380
:1012D000FB02E093FA029ECFFD01DC01C0CF138236
:1012E0001282D7CF4F925F926F927F928F929F928E
:1012F000AF92BF92CF92DF92EF92FF920F931F9324
:10130000CF93DF938C01009799F4CB01DF91CF91BC
:101310001F910F91FF90EF90DF90CF90BF90AF9013
:101320009F908F907F906F905F904F900C944D089E
:10133000FC01E60FF71F9C0122503109E217F30769
:1013400008F4AEC0D901CD91DC911197C617D7072B
:1013500020F1C530D10578F0CE01049786179707A4
:1013600050F0C61BD70B2297C193D1936D937C93FA
:10137000CF010E94E908C801DF91CF911F910F9121
:10138000FF90EF90DF90CF90BF90AF909F908F90A5
:101390007F906F905F904F9008955B01AC1ABD0AEB
:1013A0004C018C0E9D1EA091FA02B091FB02512CB3
:1013B000412CF12CE12C109731F58091F80290919D
:1013C000F9028815990509F05CC04616570608F021
:1013D00058C08091180290911902009741F48DB77E
:1013E0009EB740911C0250911D02841B950BE8177B
:1013F000F90708F055C0F093F902E093F802F901FB
:1014000071836083B8CF8D919C91119712966C90E7
:10141000129713967C901397A815B90559F56C018E
:1014200042E0C40ED11CCA14DB0420F1AC014A19FD
:101430005B09DA011296159780F0628273825183FC
:101440004083D9016D937C93E114F10471F0D701CD
:101450001396FC93EE9312978ECF22968C0F9D1FBE
:10146000F90191838083F301EFCFF093FB02E093C6
:10147000FA0281CF4816590608F42C017D01D301E8
:101480009ACFCB010E944D087C01009749F0AE0134
:10149000B8010E94530AC8010E94E90887016BCF76
:1014A00010E000E068CFFB01DC0102C001900D926A
:1014B00041505040D8F70895FB01DC018D91019017
:1014C00080190110D9F3990B0895FB01DC010190FB
:1014D0000D920020E1F7089511E0C7E3D1E000E0AC
:1014E00006C0802FFE010E9445082196011DC833C9
:0C14F000D10780E00807A9F7F894FFCFAF
:1014FC001A1B1C1D161718193738392F3435362A74
:10150C003132332D23303D2B0000FC0280000000D3
:10151C0000002C03EC02BB02000000007904FE0169
:10152C0031033003636F727265637420706173737F
:10153C00776F7264002077726F6E672070617373BF
:0C154C00776F72642120003132333400CC
:00000001FF
