:020000040000FA
:100000000C9451010C9482010C9482010C94820195
:100010000C9482010C9482010C9482010C94820154
:100020000C9482010C9482010C9482010C94820144
:100030000C9482010C9482010C9482010C94820134
:100040000C9482010C9482010C9482010C94820124
:100050000C9482010C9482010C9482010C94FF098F
:100060000C9482010C94C9090C949F090C94820190
:100070000C9482010C9482010C9482010C948201F4
:100080000C9482010C9482010C9482010C948201E4
:100090000C9482010C9482010C9482010C94490A04
:1000A0000C9482010C9482010C9482010C948201C4
:1000B0000C9482010C9482010C9482010C948201B4
:1000C0000C9482010C9482010C9482010C948201A4
:1000D0000C9482010C9482010C9482010C94820194
:1000E0000C9482010C9487060C946B030C946D0B9A
:1000F0000C9424060C9446020C9411060C94DD0317
:100100000C94AC030C947D030C9486030C940106B0
:100110000C94AB030C9455020C94B0030C948A031A
:100120000C9419020C9490030C94AF020C944E049E
:100130000C9469020C9494030C9418020C94A2037E
:100140000C9402060C94FC020C9458060C94750353
:100150000C94AA040C945A080C9480030C94170273
:100160000C9477020C942B060C9498030C940E04B8
:100170000C94A6030C949E030C9471030C947903C5
:1001800000002100240027002A002D003000330049
:1001900001010000040107010A01000022002500FE
:1001A00028002B002E003100340002010000050160
:1001B00008010B01000020002300260029002C006C
:1001C0002F003200000100000301060109010505AE
:1001D0000505070508080808020202020A0A0808BD
:1001E00004040404010101010101010103030303EB
:1001F00003030303040707070C0C0C0C0C0C0C0C7A
:100200000202020206060606060606060B0B0B0B8A
:100210000B0B0B0B010210202008081020401020AF
:1002200040800201020108040201010204081020BA
:1002300040808040201008040201800402018040B8
:100240002010080402010804020101020408102021
:100250004080010204081020408000000A0B0209BF
:100260000C0D0E0807030401000000000000000050
:10027000000000000000000000000000000000007E
:10028000000000000000121110000000000000003B
:10029000000000000000000000000000000000005E
:1002A0006D0B11241FBECFEFD1E2DEBFCDBF00E04A
:1002B0000CBF13E0A0E0B2E0EEEFF2E200E00BBF13
:1002C00002C007900D92A43AB107D9F725E0A4EA3D
:1002D000B3E001C01D92A13AB207E1F711E0C1E518
:1002E000D1E000E006C021970109802FFE010E94A5
:1002F0006E11C035D10780E00807A9F70E94380CBD
:100300000C947D110C94000096E0899FD00111247B
:10031000A65EBA4F90967C936E935F9791E091960C
:100320009C939197E0918705F091880590918605BF
:10033000992339F0309751F0811108C0809136052A
:100340001994309719F05C968C91FACF0895CF925A
:10035000DF92EF92FF920F931F9396E0899FF00137
:100360001124E65EFA4F11A2278D30A1213031050C
:1003700051F178F02230310509F451C023303105B4
:1003800009F452C01F910F91FF90EF90DF90CF9032
:1003900008956623B9F361E070E00E9484012FB7ED
:1003A000F89480911D0490911E04A0911F04B091B7
:1003B00020042FBF8093720590937305A09374055A
:1003C000B0937505DFCF9FB7F894C0901D04D0900F
:1003D0001E04E0901F04F09020049FBF009172055E
:1003E000109173052091740530917505C01AD10ADA
:1003F000E20AF30A009184051091850530E020E0BF
:100400000C151D052E053F0550F462E070E01F91AC
:100410000F91FF90EF90DF90CF900C9484016111C9
:10042000B1CF63E070E0F3CF70E060E0F0CF08950B
:100430000895AF92BF92CF92DF92EF92FF920F9307
:100440001F93CF93DF936C017B018B01040F151F6A
:10045000EB015E01AE18BF08C017D10759F06991D2
:10046000D601ED91FC910190F081E02DC601199526
:10047000892B79F7C501DF91CF911F910F91FF90E3
:10048000EF90DF90CF90BF90AF900895FC01538D17
:10049000448D252F30E0842F90E0821B930B54175E
:1004A00010F0CF96089501970895FC01918D828DEB
:1004B000981761F0A28DAE0FBF2FB11D5D968C9184
:1004C000928D9F5F9F73928F90E008958FEF9FEFC3
:1004D0000895FC01918D828D981731F0828DE80F7F
:1004E000F11D858D90E008958FEF9FEF0895FC0139
:1004F000918D228D892F90E0805C9F4F821B910906
:100500008F739927089581E794E00E94770221E094
:10051000892B09F420E0822F0895FC01A48DA80FF7
:10052000B92FB11DA35ABF4F2C91848D90E0019635
:100530008F739927848FA689B7892C93A089B18955
:100540008C91837080648C93938D848D981306C0F6
:100550000288F389E02D80818F7D80830895EF925A
:10056000FF920F931F93CF93DF93EC0181E0888F6D
:100570009B8D8C8D98131AC0E889F989808185FF3D
:1005800015C09FB7F894EE89FF896083E889F989DF
:1005900080818370806480839FBF81E090E0DF91E1
:1005A000CF911F910F91FF90EF900895F62E0B8D34
:1005B00010E00F5F1F4F0F731127E02E8C8D8E11EF
:1005C0000CC00FB607FCFACFE889F989808185FF56
:1005D000F5CFCE010E948D02F1CFEB8DEC0FFD2FF8
:1005E000F11DE35AFF4FF0829FB7F8940B8FEA8911
:1005F000FB8980818062CFCFCF93DF93EC01888D20
:100600008823B9F0AA89BB89E889F9898C9185FD8D
:1006100003C0808186FD0DC00FB607FCF7CF8C911B
:1006200085FFF2CF808185FFEDCFCE010E948D0244
:10063000E9CFDF91CF91089580E090E0892B29F0F8
:100640000E94830281110E94000080E090E0892BCB
:1006500049F080E090E0892B29F00E940000811190
:100660000E94000080E090E0892B49F080E090E05B
:10067000892B29F00E94000081110E94000080E077
:1006800090E0892B49F080E090E0892B29F00E94CE
:10069000000081110C94000008958150823108F00F
:1006A0005AC0E82FF0E08827E75AFC4F8F4F0C9490
:1006B0006E1179037D036B0371037503AB03800334
:1006C00086038A039003940398039E03A203AB035B
:1006D000A603AC03B003809180008F7780938000E5
:1006E0000895809180008F7DF9CF80918000877F71
:1006F000F5CF84B58F7784BD089584B58F7DFBCF0A
:100700008091B0008F778093B00008958091B00001
:100710008F7DF9CF809190008F778093900008951E
:10072000809190008F7DF9CF80919000877FF5CFE9
:100730008091A0008F778093A00008958091A00001
:100740008F7DF9CF8091A000877FF5CF8091200128
:100750008F77809320010895809120018F7DF9CFBC
:1007600080912001877FF5CFCF93DF93282F30E052
:10077000F901E65AFD4F8491F901EC5EFD4FD491E9
:10078000F901E253FE4FC491CC23A1F081110E94E4
:100790004D03EC2FF0E0EE0FFF1FEC54FE4FA59140
:1007A000B491EC91ED2381E090E009F480E0DF91D9
:1007B000CF91089580E090E0FACF862F0C94B40397
:1007C0001F93CF93DF93282F30E0F901E65AFD4FB6
:1007D0008491F901EC5EFD4FD491F901E253FE4F93
:1007E000C491CC23A9F0162F81110E944D03EC2F48
:1007F000F0E0EE0FFF1FE656FE4FA591B4918FB7C4
:10080000F894EC91111108C0D095DE23DC938FBFD2
:10081000DF91CF911F910895DE2BF8CF862F642FA3
:100820000C94E003CF93DF9390E0FC01EC5EFD4F6E
:10083000249182539E4FFC0184918823C9F090E05B
:10084000880F991FFC01E058FE4FA591B491FC015F
:10085000E656FE4FC591D49161110DC09FB7F89433
:100860008C91209582238C938881282328839FBF95
:10087000DF91CF910895623051F49FB7F8943C9185
:10088000822F809583238C93E8812E2BEFCF8FB717
:10089000F894EC912E2B2C938FBFEACF862F642FE8
:1008A0000C9412043FB7F8948091090490910A04C3
:1008B000A0910B04B0910C0426B5A89B05C02F3F56
:1008C00019F00196A11DB11D3FBFBA2FA92F982F76
:1008D0008827BC01CD01620F711D811D911D42E071
:1008E000660F771F881F991F4A95D1F708958F9239
:1008F0009F92AF92BF92CF92DF92EF92FF926B01E5
:100900007C010E9452044B015C01C114D104E1043A
:10091000F104B9F00E945204681979098A099B0907
:10092000683E73408105910580F321E0C21AD10829
:10093000E108F10888EE880E83E0981EA11CB11C26
:10094000E4CFFF90EF90DF90CF90BF90AF909F905B
:100950008F90089508952091E503260F3327331FC4
:1009600021323105ECF420914704FC0190E080E055
:10097000243069F082E00895A091E5032191AC0153
:100980004B535C4FA40FB52FB11D2C9301968617C6
:1009900098F38091E503680F6093E50380E0089584
:1009A00081E008951092470481E0809346041092FC
:1009B000210461E084E10E94E00361E085E10E949E
:1009C000E003E9EBF0E080818E7F808380818D7F82
:1009D000808388E48093B80085E48093BC00089508
:1009E000CF93DF9391E09093C4038823B9F0C09133
:1009F000B800D091BA008091BC008A7B8093BC0083
:100A000060E084E10E94E00360E085E10E94E00391
:100A10000E94D204D093BA00C093B800DF91CF9166
:100A200008958F929F92AF92BF92CF92DF92EF92F2
:100A3000FF920F931F93CF93DF93D0917004D13225
:100A400008F0D7C0182FC0916F040E9452046B01A8
:100A50007C018091470481116BC082E08093470440
:100A6000109346048FEF8093450410924404D09372
:100A70004304AFE4B4E0E3E2F4E080E0D81391C0D3
:100A80001092220480912204CC0FC82BC093220420
:100A900080912104813009F088C0109221040E94C5
:100AA00052046B017C01809122048093BB008091F1
:100AB000490490914A04A0914B04B0914C04892BB5
:100AC0008A2B8B2BA1F00E945204009149041091B3
:100AD0004A0420914B0430914C046C197D098E0915
:100AE0009F09061717072807390708F442C08091A5
:100AF000BC0083FDD8CF85EC8093BC000E945204DB
:100B00006B017C0180914704823009F450C08091D0
:100B100045048F3F09F46FC080914504803209F489
:100B20006CC080914504803309F469C084E026C01C
:100B30008091490490914A04A0914B04B0914C04D7
:100B4000892B8A2B8B2B09F484CF0E94520480902E
:100B5000490490904A04A0904B04B0904C046C1946
:100B60007D098E099F0986169706A806B90608F022
:100B700070CF809148040E94F00485E010924E04EA
:100B80001092700410924D04DF91CF911F910F913C
:100B9000FF90EF90DF90CF90BF90AF909F908F909D
:100BA00008959D9191938F5F69CF85EEA5CF809138
:100BB000490490914A04A0914B04B0914C04892BB4
:100BC0008A2B8B2B09F49ECF0E945204009149047A
:100BD00010914A0420914B0430914C046C197D090A
:100BE0008E099F09061717072807390708F08ACFCB
:100BF000C0CF81E0C3CF80E0C1CF82E0BFCF83E030
:100C0000BDCF0895E091120480911104E81730F4EB
:100C1000F0E0EC55FC4F808190E008958FEF9FEF5E
:100C2000089590911204809111042FEF3FEF9817CF
:100C300048F4E92FF0E0EC55FC4F208130E09F5F55
:100C400090931204C90108958091110490911204A7
:100C5000891B990B0895CF92DF92EF92FF920F9329
:100C60001F93CF93DF937C01CB018A0120914D0428
:100C7000222389F0EB016B01C40ED51ECC15DD05D6
:100C800069F06991D701ED91FC910190F081E02D1F
:100C9000C7011995F3CF642F0E94AB04C801DF91FF
:100CA000CF911F910F91FF90EF90DF90CF9008951B
:100CB000CF93DF931F92CDB7DEB7698320914D04A8
:100CC0002223F9F020917004203258F021E030E026
:100CD000FC013383228390E080E00F90DF91CF917D
:100CE000089580914E04E82FF0E0E15BFB4F99817D
:100CF00090838F5F80934E048093700481E090E036
:100D0000ECCF61E0CE0101960E94AB04F7CF90E0FA
:100D100080E00895CF93C62F91E090934D0490E525
:100D200090936F0410924E0410927004682F8EE01E
:100D300095E00E9458066C2F8EE095E00E945806C0
:100D400081E0CF910C9411058F929F92AF92BF9248
:100D50000F931F93CF93DF93CDB7DEB7A1970FB655
:100D6000F894DEBF0FBECDBF19A2423008F44AE0AE
:100D70008E010F5D1F4F842E912CB12CA12CA5014B
:100D800094010E944C11E62FB901CA01EA3044F5E2
:100D9000E05DD801EE938D01232B242B252B79F7D1
:100DA00090E080E0109769F0FD0101900020E9F7E4
:100DB0003197AF014A1B5B0BBD0189E895E00E94AA
:100DC0001902A1960FB6F894DEBF0FBECDBFDF911A
:100DD000CF911F910F91BF90AF909F908F900895EA
:100DE000E95CD7CFFC0101900020E9F73197AF0112
:100DF000481B590BBC0189E895E00C941902682F37
:100E000070E090E080E04AE00C94A406CF93DF937A
:100E1000EC0160E08E810E94E00361E08E810E941F
:100E2000E00360E08E810E94E0038BE891E001978F
:100E3000F1F7DF91CF910895CF92DF92EF92FF9279
:100E40000F931F93CF93DF936C017C0187E0E80E33
:100E5000F11CD0E0C0E0062F10E0B8010C2E02C05B
:100E6000759567950A94E2F76170F70181917F01AA
:100E70000E94E0032196C430D10579F7C601DF91C5
:100E8000CF911F910F91FF90EF90DF90CF900C9436
:100E90000607CF92DF92EF92FF920F931F93CF93AB
:100EA000DF93EC01F62E642F8C810E94E0038D818C
:100EB0008F3F19F060E00E94E0030F2D10E08F8556
:100EC00084FF25C06E0187E0C80ED11CF12CE12CF7
:100ED000B8010E2C02C0759567950A94E2F761700F
:100EE000F60181916F010E94E003FFEFEF1AFF0A04
:100EF00088E0E816F10461F7CE01DF91CF911F91F0
:100F00000F91FF90EF90DF90CF900C940607B801FF
:100F100084E0759567958A95E1F7CE010E941C07DC
:100F20006F2DCE01DF91CF911F910F91FF90EF9028
:100F3000DF90CF900C941C0740E0682F89E895E083
:100F40000C94490781E00E949C078BE39FE1019785
:100F5000F1F70895CF93DF93823029F490919805AB
:100F600098609093980580939C0510929D0580E46D
:100F700080939E0580E180939F0580E58093A00586
:100F800061E080918D050E94120480918E058F3F53
:100F900019F061E00E94120461E080918F050E94C7
:100FA0001204C9E8D5E09E01295835408091980582
:100FB00084FD0BC084E090E021962817390744F4A3
:100FC00061E08E810E941204EECF88E090E0F4CFC1
:100FD0008BE39DE00197F1F760E080918D050E9421
:100FE000E00360E080918F050E94E00380918E0510
:100FF0008F3F19F060E00E94E0038091980584FD26
:1010000034C063E089E895E00E941C07CBE4D6E495
:10101000CE010197F1F763E089E895E00E941C0793
:101020002197F1F763E089E895E00E941C0783E5CA
:1010300092E00197F1F762E089E895E00E941C07D1
:101040008091980580620E949C0784E080939905B6
:101050008CE00E949C070E94A20782E080939A0580
:1010600086E0DF91CF910C949C0780620E949C07E0
:101070008BE496E40197F1F78091980580620E94D5
:101080009C0783E592E00197F1F7809198058062D3
:101090000E949C07D5CF90919C05691710F06FEFC7
:1010A000690FE62FF0E0E757FA4F9489890F8068BF
:1010B0000C949C0741E00E94490781E090E008956C
:1010C000CF92DF92EF92FF926C01990FEE08FF082A
:1010D000F7FE16C041E06DE289E895E00E944907FD
:1010E00066277727CB016C197D098E099F094AE095
:1010F0000E94A4060196FF90EF90DF90CF90089594
:101100004AE0C701B601FF90EF90DF90CF900C94BA
:10111000A406CF92DF92EF92FF920F931F9391E07C
:1011200090934D0490E590936F0410924E041092AA
:101130007004682F8EE095E00E94580681E00E94BE
:1011400011050E9452046B017C01809147048111BA
:1011500063C081E080934704809346049FEF90939F
:101160004504109244041092430480932204809119
:101170002204806A8093220480912104813009F046
:1011800080C0109221040E9452046B017C01809166
:1011900022048093BB008091490490914A04A0915D
:1011A0004B04B0914C04892B8A2B8B2BA1F00E940D
:1011B00052040091490410914A0420914B0430914B
:1011C0004C046C197D098E099F090617170728071B
:1011D000390708F442C08091BC0083FDD8CF85EC6C
:1011E0008093BC000E9452046B017C0180914704F3
:1011F000813009F448C080914404811166C0809117
:101200004404A3E2B4E0E4EAF3E090E0981751F17B
:101210002D9121939F5FFACF8091490490914A04C8
:10122000A0914B04B0914C04892B8A2B8B2B09F491
:101230008CCF0E9452040091490410914A042091DD
:101240004B0430914C046C197D098E099F090617D7
:1012500017072807390708F078CF809148040E94C3
:10126000F00480E010921204809311048EE095E067
:101270000E9411061F910F91FF90EF90DF90CF9089
:10128000089585EEADCF8091490490914A04A091D4
:101290004B04B0914C04892B8A2B8B2B09F4A6CFDD
:1012A0000E9452040091490410914A0420914B0479
:1012B00030914C046C197D098E099F090617170798
:1012C0002807390708F092CFC8CF81E09ACF85ED83
:1012D0008093BC008091490490914A04A0914B04F2
:1012E000B0914C040796A11DB11D23E0B695A795BA
:1012F000979587952A95D1F72091BC0024FD03C0CE
:101300001092470408954091490450914A04609115
:101310004B0470914C04452B462B472B69F30097E7
:10132000A105B10541F025E32A95F1F700000197E9
:10133000A109B109E1CF809148040C94F0041F92F7
:101340000F920FB60F9211240BB60F922F933F936B
:101350004F935F936F937F938F939F93AF93BF93BD
:10136000EF93FF9381E794E00E948D02FF91EF914C
:10137000BF91AF919F918F917F916F915F914F91AD
:101380003F912F910F900BBE0F900FBE0F901F90AB
:1013900018951F920F920FB60F9211240BB60F9251
:1013A0002F938F939F93EF93FF93E0918104F0919C
:1013B00082048081E0918704F091880482FD1DC041
:1013C000908180918A048F5F8F7320918B048217A4
:1013D00041F0E0918A04F0E0EF58FB4F958F809345
:1013E0008A04FF91EF919F918F912F910F900BBEE7
:1013F0000F900FBE0F901F9018958081F2CF1F9213
:101400000F920FB60F9211242F933F938F939F93B8
:10141000AF93BF9380911D0490911E04A0911F046F
:10142000B09120043091080423E0230F2D3758F5A4
:101430000196A11DB11D2093080480931D04909373
:101440001E04A0931F04B09320048091090490917E
:101450000A04A0910B04B0910C040196A11DB11DCA
:101460008093090490930A04A0930B04B0930C0496
:10147000BF91AF919F918F913F912F910F900FBE90
:101480000F901F90189526E8230F0296A11DB11DFD
:10149000D2CF1F920F920FB60F9211240BB60F925C
:1014A0002F933F934F935F936F937F938F939F936C
:1014B000AF93BF93EF93FF938091B900887F8036FD
:1014C00009F44DC008F040C0883209F4A9C028F5DD
:1014D000803109F49DC0C8F4882309F4FBC088302A
:1014E00009F496C0FF91EF91BF91AF919F918F91B9
:1014F0007F916F915F914F913F912F910F900BBE14
:101500000F900FBE0F901F901895883109F488C076
:10151000803241F78093450414C0803409F49DC0A3
:1015200040F48033B9F38833E9F68093450485ECC1
:10153000B0C0803509F485C0883509F496C0883478
:1015400089F60E946709CECF883909F48CC038F536
:10155000883729F050F4883611F0803719F683E087
:10156000809347041092070457C0883809F47BC061
:10157000803919F0803809F0B5CF809107048032A6
:1015800008F071C0E091070481E08E0F809307049A
:101590008091BB00F0E0E951FC4F80833DC0803B6F
:1015A00039F0E0F4803A09F479C0883A09F09ACF2A
:1015B00084E0809347041092E6031092E503E091E3
:1015C0000F04F091100419958091E50381110FC06B
:1015D00081E08093E5031092C50309C0803C09F4C3
:1015E000A6CF883C09F4A3CF883B09F07BCFE091DC
:1015F000E60381E08E0F8093E603F0E0EB53FC4FAF
:1016000080818093BB009091E6038091E50329C01F
:10161000809122048093BB0085EC8093BC0062CF54
:101620009091440480914304981758F5E091440444
:1016300081E08E0F80934404F0E0ED5DFB4F8081EC
:10164000E9CFE091440481E08E0F809344048091BF
:10165000BB00F0E0ED5DFB4F8083909144048091EE
:1016600043049817C8F285E8D8CFE091440481E09C
:101670008E0F809344048091BB00F0E0ED5DFB4F42
:1016800080838091460481115CCF81E080932104A6
:1016900084EA8093BC001092470424CF85EC8093A9
:1016A000BC001092470480910704803230F4E0912E
:1016B0000704F0E0E951FC4F10826091070470E0EC
:1016C000E0910D04F0910E0487EE93E019951092CD
:1016D000070408CF1092450434CF1092740410927E
:1016E000730488EE93E0A0E0B0E0809375049093DB
:1016F0007604A0937704B09378042EE132E030931F
:1017000072042093710425EC30E030937E04209322
:101710007D0424EC30E03093800420937F0420EC9F
:1017200030E0309382042093810421EC30E0309348
:1017300084042093830422EC30E0309386042093C9
:10174000850426EC30E030938804209387041092BF
:101750008A0410928B0410928C0410928D041092C3
:101760001105109210058093120590931305A09314
:101770001405B093150580E392E090930F058093D4
:101780000E0510928C0510928B058CE492E09093DC
:101790008A05809389058DE080938D058FEF809376
:1017A0008E058CE080938F0588E08093900589E01A
:1017B000809391058AE0809392058BE08093930556
:1017C0001092940510929505109296051092970527
:1017D0001092980581E00E94AA0710921C051092B1
:1017E000200510921F051092210582E492E090934B
:1017F0001B0580931A05E6E3F5E01082148213823C
:101800001582369685E0E237F807B9F786E092E070
:1018100090937D0580937C0582E092E090937F0514
:1018200080937E0584E080938005809381058AE023
:1018300092E090937B0580937A058AE090E0909304
:1018400083058093820584EF91E0909385058093D2
:1018500084051092880510928705109276051092E3
:1018600077051092780510927905109286050895F3
:10187000789484B5826084BD84B5816084BD85B56B
:10188000826085BD85B5816085BD80916E00816077
:1018900080936E001092810080918100826080931D
:1018A000810080918100816080938100809180001F
:1018B0008160809380008091B10084608093B1004A
:1018C0008091B00081608093B0008091910082602F
:1018D000809391008091910081608093910080912C
:1018E00090008160809390008091A100826080933D
:1018F000A1008091A10081608093A1008091A0004F
:1019000081608093A00080912101826080932101F9
:10191000809121018160809321018091200181606B
:101920008093200180917A00846080937A00809176
:101930007A00826080937A0080917A00816080933F
:101940007A0080917A00806880937A001092C100BA
:10195000109212041092110410924E04109270040E
:101960000E94D20487E192E09093100480930F04C8
:1019700088E192E090930E0480930D04E09181043D
:10198000F091820482E08083E0917D04F0917E04F6
:101990001082E0917F04F09180048FEC808310929C
:1019A0008904E0918504F091860486E08083E091CB
:1019B0008304F0918404808180618083E0918304BA
:1019C000F0918404808188608083E0918304F091A9
:1019D0008404808180688083E0918304F091840492
:1019E00080818F7D808382E00E94AA078091990583
:1019F000982F9260909399058A600E949C0744E01A
:101A000050E062E370E083E194E00E9476110E946E
:101A1000A20760E080E00E944B0884E592E00E940B
:101A2000F20661E080E00E944B0882E692E00E94AC
:101A3000F20660E080E00E948A0668EE73E080E0D3
:101A400090E00E94770462E081E00E948A0668EEDE
:101A500073E080E090E00E94770462E082E00E9400
:101A60008A0668EE73E080E090E00E94770462E00E
:101A700083E00E948A0668EE73E080E090E00E94B6
:101A8000770462E084E00E948A0668EE73E080E0FA
:101A900090E00E9477040E94A20760E080E00E942C
:101AA0004B0881E792E00E94F20664EF71E080E06B
:101AB00090E00E9477040E94A20760E080E00E940C
:101AC0004B0887E792E00E94F20661E080E00E9406
:101AD0004B0887E892E00E94F2066CED75E080E02A
:101AE00090E00E9477040E94A20760E080E00E94DC
:101AF0004B0883E992E00E94F20661E080E00E94D8
:101B00004B0882EA92E00E94F206412C512C3201ED
:101B1000439422242A94322C08EE13E021E02093EF
:101B200086058FB7F89440911D0450911E04609172
:101B30001F04709120048FBF8091760590917705E6
:101B4000A0917805B0917905481B590B6A0B7B0B66
:101B50008091820590918305B0E0A0E084179507FD
:101B6000A607B70708F012C1C0E080918005C8172A
:101B700060F4E0917C05F0917D05EC0FF11D62E0D1
:101B800080810E941204CF5FF0CF912C809181055B
:101B9000981608F05FC0E92CF12CE0917E05F091D9
:101BA0007F05EE0DFF1D61E080810E941204E0912F
:101BB0007E05F0917F05EE0DFF1D60E080810E94A3
:101BC000E003D301C201092C04C0880F991FAA1F8A
:101BD000BB1F0A94D2F75C016C01C094D094812C95
:101BE000809180058816F8F4C82DD0E0E0917C053E
:101BF000F0917D05EC0FFD1F80810E94B4032496B7
:101C0000CC0FDD1FC65EDA4F892B41F488819981A4
:101C10008A299B29998388838394E2CF888199813B
:101C20008C219D21F7CFE0917E05F0917F05EE0D8F
:101C3000FF1D61E080810E94E00380917E0590910C
:101C40007F05E80EF91E60E0F70180810E94120412
:101C500093949CCF9AE1E92E95E0F92EE7018F8DC0
:101C600098A1892B21F41C8E3E8E2D8E19A22696CA
:101C7000F5E0C635DF0799F7D12C80918005D8169D
:101C800008F053C0C12CAD2CB12CAA0CBB1C950183
:101C90002E5D3A4F590120918105C21608F043C0CC
:101CA000F501608171810C2C02C0769567950A94CC
:101CB000E2F7D29E900111242C0D311DEAE1F5E0EE
:101CC00080E0458D568D2417350709F4E3C28F5FF8
:101CD00036968A30B1F760FF24C0EAE1F5E090E083
:101CE00080E0448D411118C0E0917A05F0917B05A8
:101CF000E20FF31F408156E0589FF001599FF00D0D
:101D00001124E65EFA4F448F368F258F10A2178E6E
:101D100061E00E94A70105C0019636968A309105C0
:101D200001F7C394B8CFD394A8CF80E0F70191A175
:101D30009111892FF6E0EF0EF11CCE15DF05B1F7FA
:101D40009FB7F89440911D0450911E0460911F04A8
:101D5000709120049FBF4093760550937705609360
:101D6000780570937905882389F080913B05882355
:101D700069F08091390590913A05019739F4809185
:101D80003605811106C00E941C03C8CE109286053C
:101D9000FACF8F3209F443C11CF58B3209F472C1BA
:101DA0008D3209F4F9C090ED980F9A3060F7909158
:101DB0001A04992309F44BC2C82F880FDD0BE09752
:101DC000D0931C04C0931B041092190410921804A1
:101DD00061E08DE00E944B08CE010E946008D3CFE5
:101DE0008D3309F472C18337F1F60E94A20760E0D7
:101DF00080E00E944B0882EB92E00E94F20661E0D4
:101E000080E00E944B0890911B04892F880F880F57
:101E1000890F8F5F0E9489080E94FF0661E086E3B8
:101E20000E94E00390911B04892F880F880F890F6F
:101E30008F5F0E948908809FB001819F700D1124DF
:101E4000072E000C880B990B0E9477040E94A207B2
:101E500060E080E00E944B088EEB92E00E94F20668
:101E600061E080E00E944B0890911B04892F880F4D
:101E7000880F890F8E5F0E9489080E94FF0661E02B
:101E800089E30E94E00390911B04892F880F880F3B
:101E9000890F8E5F0E948908809FB001819F700D1D
:101EA0001124072E000C880B990B0E9477040E94C6
:101EB000A20760E080E00E944B088CEC92E00E9458
:101EC000F20661E080E00E944B0890911B04892F8C
:101ED000880F880F890F8D5F0E9489080E94FF0676
:101EE00061E08BE30E94E00390911B04892F880F2F
:101EF000880F890F8D5F0E948908809FB001819FA4
:101F0000700D1124072E000C880B990B0E9477048A
:101F10000E94A20760E080E00E944B0885ED92E0FD
:101F20000E94F20661E080E00E944B0890911B0441
:101F3000892F880F880F890F8C5F0E9489080E9463
:101F4000FF0661E08EE30E94E00390911B04892F5D
:101F5000880F880F890F8C5F0E948908809FB001CD
:101F6000819F700D1124072E000C880B990B0E9485
:101F700077040E94A20760E080E00E944B088FED8A
:101F800092E00E94F20661E080E00E944B0880EF40
:101F900092E00E94F206F7CE0E94A20760E080E085
:101FA0000E944B088FEF92E00E94F20660E086E309
:101FB0000E94E00368EC70E080E090E00E9477040B
:101FC00060E089E30E94E00368EC70E080E090E06C
:101FD0000E94770460E08BE30E94E00368EC70E00D
:101FE00080E090E00E94770460E08EE30E94E003CE
:101FF00068EC70E080E090E00E9477040E94A20705
:1020000060E080E00E944B088CE093E00E94F206C2
:1020100068EE73E080E090E00E947704B4CE0E9406
:10202000A2070E94A20760E080E00E944B088CE1BA
:1020300093E00E94F20661E080E00E944B08F12CE0
:10204000D0E0C0E08091000290910102C817D9074A
:102050006CF48F2D0E9489080E94FF0689E293E0AC
:102060000E94F206219625E0F20EECCF88E293E082
:102070000E94F20631E030931A0410921904109273
:10208000180481CE0E94A20760E080E00E944B0805
:102090008091000290910102059759F48BE293E040
:1020A0000E94F20661E080E00E944B088CE393E01E
:1020B00070CF8AE493E00E94F20610921904109205
:1020C000180451E0509317045ECE809117048823C2
:1020D00009F48FC010921904109218040E94A207EC
:1020E00060E080E00E944B0884E592E00E94F206E6
:1020F00061E080E00E944B0882E692E00E94F206D6
:1021000060910002C62FCC0FCC0FC60F8C2F0E94FF
:102110008A0668EE73E080E090E00E9477046091A8
:102120001304605381E08C0F0E948A0668EE73E00E
:1021300080E090E00E94770460911404605382E094
:102140008C0F0E948A0668EE73E080E090E00E94A7
:10215000770460911504605383E08C0F0E948A0617
:1021600068EE73E080E090E00E94770460911604CE
:10217000605384E08C0F0E948A0668EE73E080E072
:1021800090E00E9477041092170444E050E062E36C
:1021900070E083E194E00E9476110E94A20760E063
:1021A00080E00E944B088AE593E00E94F20661E01D
:1021B00080E00E944B0886E693E00E94F20668EEFB
:1021C00073E080E090E00E9477040E94A20760E044
:1021D00080E00E944B0881E793E00E94F206809124
:1021E00000029091010201969093010280930002F7
:1021F000CACD80911A04882309F4C5CD1092190420
:102200001092180410921A040E94A20760E080E065
:102210000E944B0882E893E00E94F20661E087E0AA
:102220000E944B0880911B0490911C040E9460083E
:102230006CED75E080E090E00E9477040E94A207B8
:1022400060E080E00E944B0883E993E0A2CE909189
:102250001704992309F497CDC0911804D09119045B
:10226000FE01ED5EFB4F7F01808361E08C2F0E94B9
:102270004B0841E0F701608189E895E00E94490739
:102280002196C430D10509F4F8CED0931904C09337
:10229000180479CD61703DCDA1E21A2EAA1BBB1B9B
:1022A000FD010DC0AA1FBB1FEE1FFF1FA217B30722
:1022B000E407F50720F0A21BB30BE40BF50B661F38
:1022C000771F881F991F1A9469F7609570958095FC
:1022D00090959B01AC01BD01CF010895EE0FFF1F4A
:1022E000881F8BBF0790F691E02D1994DC0101C087
:1022F0006D9341505040E0F70895F894FFCF0100EE
:1023000017191B1D1F2123253738392F3435362A3D
:102310003132332D73303D2B00000000AF02190223
:102320004602FC02770255026902000000005806CE
:102330002B0687060106240611060206000000008F
:102340004E040E04DD03000000005A08190287063F
:10235000AA0453657474696E672075702E2E2E0062
:10236000506C6561736520776169742E2E2E006450
:102370006F6E6521005468652064656661756C74D4
:102380002069733A00352035203520352073656388
:1023900000557365204F4E20746F2077617368007D
:1023A0004F72202B20746F20616464206E6577006B
:1023B00050726520576173682E2E2E004465746537
:1023C0007267656E74732E2E2E0057617465722EBF
:1023D0002E2E00447279696E672E2E2E005761737F
:1023E00068696E6720697320646F6E652E0055738F
:1023F00065202D20746F20726573657400526573BB
:10240000657474696E672E2E2E0052657365747440
:10241000696E6720646F6E652E0043686F6F736529
:10242000206F6E653A003A20004E6F206D6F726526
:102430002070726F6772616D7300617265206163F5
:102440006365707465642100456E74657220342084
:102450006469676974733A004E65772070726F67BC
:1024600072616D0077617320536176656421005558
:102470007365202F20746F2073656C6563742E0064
:1024800043757272656E742070726F6772616D3A17
:1024900000557365204F6E20746F20776173682E2E
:0224A00000003A
:020000040003F7
:10E000000D9489F10D94B2F10D94B2F10D94B2F129
:10E010000D94B2F10D94B2F10D94B2F10D94B2F1F0
:10E020000D94B2F10D94B2F10D94B2F10D94B2F1E0
:10E030000D94B2F10D94B2F10D94B2F10D94B2F1D0
:10E040000D94B2F10D94B2F10D94B2F10D94B2F1C0
:10E050000D94B2F10D94B2F10D94B2F10D94B2F1B0
:10E060000D94B2F10D94B2F10D94B2F10D94B2F1A0
:10E070000D94B2F10D94B2F10D94B2F10D94B2F190
:10E080000D94B2F10D94B2F10D94B2F10D94B2F180
:10E090000D94B2F10D94B2F10D94B2F10D94B2F170
:10E0A0000D94B2F10D94B2F10D94B2F10D94B2F160
:10E0B0000D94B2F10D94B2F10D94B2F10D94B2F150
:10E0C0000D94B2F10D94B2F10D94B2F10D94B2F140
:10E0D0000D94B2F10D94B2F10D94B2F10D94B2F130
:10E0E0000D94B2F141546D656761323536300041AF
:10E0F000726475696E6F206578706C6F72657220DE
:10E1000073746B3530305632206279204D4C530099
:10E11000426F6F746C6F616465723E004875683F52
:10E1200000436F6D70696C6564206F6E203D200048
:10E130004350552054797065202020203D20005FF9
:10E140005F4156525F415243485F5F3D2000415658
:10E1500052204C696243205665723D20004743437C
:10E160002056657273696F6E203D20004350552024
:10E1700049442020202020203D20004C6F7720663D
:10E18000757365202020203D20004869676820665F
:10E190007573652020203D200045787420667573D6
:10E1A00065202020203D20004C6F636B2066757336
:10E1B000652020203D20004D617220203720323024
:10E1C000313300312E362E3800342E332E350056A2
:10E1D00023202020414444522020206F7020636F70
:10E1E00064652020202020696E73747275637469E1
:10E1F0006F6E2061646472202020496E74657272B3
:10E20000757074006E6F20766563746F7200726A49
:10E210006D702020006A6D70200057686174207056
:10E220006F72743A00506F7274206E6F7420737541
:10E2300070706F72746564004D7573742062652030
:10E2400061206C6574746572002000577269747483
:10E25000696E672045450052656164696E672045B7
:10E26000450045452065727220636E743D00504F35
:10E27000525400303D5A65726F2061646472003FF1
:10E280003D43505520737461747300403D454550C3
:10E29000524F4D207465737400423D426C696E6B41
:10E2A000204C454400453D44756D70204545505215
:10E2B0004F4D00463D44756D7020464C415348001B
:10E2C000483D48656C70004C3D4C69737420492F83
:10E2D0004F20506F72747300513D51756974005234
:10E2E0003D44756D702052414D00563D73686F7707
:10E2F00020696E7465727275707420566563746FF0
:10E30000727300593D506F727420626C696E6B00BD
:10E310002A0011241FBECFEFD1E2DEBFCDBF01E046
:10E320000CBF12E0A0E0B2E0EEE1FDEF03E00BBFB6
:10E3300002C007900D92A030B107D9F712E0A0E01B
:10E34000B2E001C01D92AE30B107E1F70F9460F367
:10E350000D948DFE01E20EBF0FEF0DBF11241FBE05
:10E360000D9460F30D9400F020E030E040ED57E0B4
:10E3700005C0FA013197F1F72F5F3F4F2817390792
:10E38000C0F308959C01260F311DC901A0E0B0E043
:10E390002F5F3F4FABBFFC018791882361F08093D3
:10E3A000C6008091C00086FFFCCF8091C0008064D1
:10E3B0008093C000EACF08958DE08093C6008091DD
:10E3C000C00086FFFCCF8091C00080648093C000B5
:10E3D0008AE08093C6008091C00086FFFCCF8091C8
:10E3E000C00080648093C00008950F94C2F10F9420
:10E3F000DCF10895FC019081992359F09093C600B7
:10E400008091C00086FFFCCF8091C0008064809323
:10E41000C0003196992379F70895282F982F929567
:10E420009F70892F805D8A3308F0895F8093C600D2
:10E430008091C00086FFFCCF8091C00080648093F3
:10E44000C000822F8F70982F905D9A3308F0995FEB
:10E450009093C6008091C00086FFFCCF8091C000E1
:10E4600080648093C00008959C01FB01853691056E
:10E470001CF46330710594F0C90164E670E00F94F8
:10E480002EFE605D7F4F6093C6008091C00086FFC6
:10E49000FCCF8091C00080648093C0002B30310598
:10E4A00014F43297B4F0C90164E670E00F942EFEC4
:10E4B0006AE070E00F942EFE605D7F4F6093C600AF
:10E4C0008091C00086FFFCCF8091C0008064809363
:10E4D000C000C9016AE070E00F942EFEC0968093E0
:10E4E000C6008091C00086FFFCCF8091C000806490
:10E4F0008093C00008951F93182F8EE692EE60E07F
:10E500000F94C2F11093C6008091C00086FFFCCF2B
:10E510008091C00080648093C0000F94DCF11F9153
:10E5200008952F923F924F925F926F927F928F92B7
:10E530009F92AF92BF92CF92DF92EF92FF920F9392
:10E540001F93DF93CF93CDB7DEB762970FB6F894E2
:10E55000DEBF0FBECDBF382E622ECA01DB015C01CB
:10E560006D01772420E2222E2E010894411C511CBB
:10E570008BC081E0A81680E0B80681E0C80680E084
:10E58000D80628F0C601AA27BB270F940DF2BB2797
:10E59000AD2D9C2D8B2D0F940DF28A2D0F940DF225
:10E5A0002092C6008091C00086FFFCCF8091C00001
:10E5B00080648093C0009DE29093C6008091C0006B
:10E5C00086FFFCCF8091C00080648093C0002092C1
:10E5D000C6008091C00086FFFCCF8091C00080649F
:10E5E0008093C00019828601750188249924A1E0D6
:10E5F0003A1651F03A1620F0B2E03B1661F409C029
:10E600000BBFF701779007C0C7010F9477FE782EF4
:10E6100002C0F7017080872D0F940DF22092C60082
:10E620008091C00086FFFCCF8091C0008064809301
:10E63000C000872D8052F401EF70F0708F3520F408
:10E64000E40DF51D708204C0E40DF51D8EE280839B
:10E650000894E11CF11C011D111D0894811C911CE2
:10E6600090E18916910409F0C2CF80E190E0A0E02A
:10E67000B0E0A80EB91ECA1EDB1E198AC2010F9493
:10E68000FAF10F94DCF16A94662009F072CF629679
:10E690000FB6F894DEBF0FBECDBFCF91DF911F91B3
:10E6A0000F91FF90EF90DF90CF90BF90AF909F9031
:10E6B0008F907F906F905F904F903F902F90089534
:10E6C0002F923F924F925F926F927F928F929F9282
:10E6D000AF92BF92CF92DF92EF92FF920F931F9370
:10E6E000DF93CF93CDB7DEB7CD53D1400FB6F894BB
:10E6F000DEBF0FBECDBF01E20EBF0FEF0DBF94B75F
:10E70000F894A89514BE80916000886180936000A1
:10E7100010926000789493FF05C0E0910002F091A0
:10E7200001021995279A2F9A8091C00082608093E8
:10E73000C00080E18093C40088E18093C1000000A4
:10E74000EE24FF24870144E0A42EB12CCC24DD2448
:10E7500024C0C5010197F1F70894E11CF11C011DCB
:10E76000111D21E2E2162EE4F20620E0020720E06D
:10E77000120718F031E0C32ED12CC801B70127ECE5
:10E780003BE140E050E00F9441FE611571058105C9
:10E79000910519F485B1805885B98091C00087FD35
:10E7A00003C0C114D104A9F2A6014F5F5F4FC25E3E
:10E7B000DE4F59834883CE51D140C25EDE4F8881FF
:10E7C0009981CE51D140019711F00D9410FEC05D9A
:10E7D000DE4F19821882C053D14060E0C15DDE4F28
:10E7E0001882CF52D14088249924C35DDE4F19820C
:10E7F0001882CD52D140C05EDE4F188219821A8233
:10E800001B82C052D140CE5CDE4F188219821A8220
:10E810001B82C253D140EE24FF2487010BBFF701B6
:10E8200007911691C45CDE4F19830883CC53D14005
:10E830000D940BFEC25EDE4F28813981CE51D1404E
:10E840002130310509F52091C600C25EDE4F1982E4
:10E850001882CE51D14022C02F5F3F4F4F4F5F4FA4
:10E86000213082E138078AE7480780E0580780F0C6
:10E87000C45CDE4FE881F981CC53D140EF5FFF4F9C
:10E8800019F0EE27FF27099420E030E040E050E047
:10E890008091C00087FFE0CF2091C600C35DDE4FAE
:10E8A00048815981CD52D1404F5F5F4FC35DDE4FEC
:10E8B00059834883CD52D140213209F063C64A3092
:10E8C000510508F05FC60894811C911C53E0851621
:10E8D000910409F059C600E010E018C081E280936D
:10E8E000C6008091C00086FFFCCF8091C00080648C
:10E8F0008093C0002F5F3F4F2931310579F70F9486
:10E90000DCF10F5F1F4F0530110519F020E030E0FA
:10E91000E5CF10920A0210920B0210920C02109294
:10E920000D02109206021092070210920802109235
:10E930000902109202021092030210920402109235
:10E9400005028FEE90EE60E00F94F5F180E191EE1C
:10E9500060E00F94C2F18091C00087FFFCCF9091DE
:10E96000C600903608F09F759032B8F09093C600BC
:10E970008091C00086FFFCCF8091C00080648093AE
:10E98000C000A0E2A093C6008091C00086FFFCCF2B
:10E990008091C00080648093C000983409F4D7C18E
:10E9A0009934B8F4923409F459C1933458F490333B
:10E9B00019F1903308F4E3C59F33A1F1903409F0C5
:10E9C000DEC5BDC0953409F470C1963409F0D7C5D1
:10E9D00098C1923509F42BC2933538F49C3409F46C
:10E9E000F5C1913509F0CBC518C2963509F445C279
:10E9F000993509F0C4C567C483E792EE62E00F94CD
:10EA0000F5F110920602109207021092080210927D
:10EA1000090210920A0210920B0210920C0210923C
:10EA20000D0213C18FE792EE62E00F94F5F18FEEC5
:10EA300090EE60E00F94F5F181E291EE60E00F94CA
:10EA4000C2F187EB91EE60E00F94F5F180E391EE77
:10EA500060E00F94C2F184EE90EE60E00F94F5F167
:10EA60008FE391EE60E00F94C2F186E090E061E008
:10EA700070E00F9434F20F94DCF18DE591EE60E0DC
:10EA80000F94C2F189EC91EE60E00F94F5F18EE401
:10EA900091EE60E00F94C2F183EC91EE60E00F9490
:10EAA000F5F18CE691EE60E00F94C2F18EE10F94E7
:10EAB0000DF288E90F940DF281E00F940DF20F949E
:10EAC000DCF18BE791EE60E00F94C2F119E0E0E039
:10EAD000F0E010935700E4918E2F0F940DF20F94F5
:10EAE000DCF18AE891EE60E00F94C2F1E3E0F0E03F
:10EAF00010935700E4918E2F0F940DF20F94DCF1D8
:10EB000089E991EE60E00F94C2F1E2E0F0E0109349
:10EB10005700E4918E2F0F940DF20F94DCF188EAE8
:10EB200091EE60E00F94C2F1E1E0F0E01093570045
:10EB30001491812F0F940DF20F94DCF107CF8BE825
:10EB400092EE62E00F94F5F18BE492EE60E00F94A8
:10EB5000F5F10F94DCF100E010E019C0C8016F2D51
:10EB60000F947FFEFF2031F489E492EE60E00F9471
:10EB7000C2F10BC0F092C6008091C00086FFFCCFAE
:10EB80008091C00080648093C0000F5F1F4FC80158
:10EB900081519F41A0E0B0E0ABBFFC01F790BAE229
:10EBA000FB1621F0E2E000301E07C1F60F94DCF105
:10EBB0000F94DCF187E592EE60E00F94F5F10F948D
:10EBC000DCF1CC24DD2400E010E01EC0C8010F946D
:10EBD00077FEF82E882331F489E492EE60E00F94FA
:10EBE000C2F10BC08093C6008091C00086FFFCCFAD
:10EBF0008091C00080648093C000FE1419F00894D6
:10EC0000C11CD11C0F5F1F4FC80181519F41A0E063
:10EC1000B0E0ABBFFC01E790FAE2EF1621F022E092
:10EC20000030120799F60F94DCF10F94DCF182E6C4
:10EC300092EE60E00F94C2F1C60161E070E00F94C3
:10EC400034F20F94DCF10F94DCF110920202109276
:10EC50000302109204021092050278CE89E992EE26
:10EC600062E00F94F5F1279A2F9A16C02F9880E052
:10EC700090E0E0EDF7E03197F1F7019684369105E9
:10EC8000C1F72F9A80E090E0E0EDF7E03197F1F7DF
:10EC9000019684369105C1F78091C00087FFE6CFC9
:10ECA0008091C00087FFFCCF64C485EA92EE62E0E9
:10ECB0000F94F5F140910202509103026091040219
:10ECC0007091050281E020E10F9491F2809102029F
:10ECD00090910302A0910402B091050280509F4FD1
:10ECE000AF4FBF4F8093020290930302A0930402A0
:10ECF000B093050280509041A040B04008F426CE69
:10ED0000A4CF83EB92EE62E00F94F5F140910602FE
:10ED100050910702609108027091090280E020E1A1
:10ED20000F9491F28091060290910702A09108023F
:10ED3000B091090280509F4FAF4FBF4F80930602A2
:10ED400090930702A0930802B0930902FFCD80ECD4
:10ED500092EE62E00F94F5F183E792EE60E00F949B
:10ED6000F5F18FE792EE60E00F94F5F18BE892EE0B
:10ED700060E00F94F5F189E992EE60E00F94F5F10F
:10ED800085EA92EE60E00F94F5F183EB92EE60E09D
:10ED90000F94F5F180EC92EE60E00F94F5F187ECC2
:10EDA00092EE60E00F94F5F188ED92EE60E00F9442
:10EDB000F5F18FED92EE60E00F94F5F18AEE92EEB0
:10EDC00060E00F94F5F183E093EEBDCD87EC92EE19
:10EDD00062E00F94F5F181E40F947BF282E40F94EA
:10EDE0007BF283E40F947BF284E40F947BF285E45E
:10EDF0000F947BF286E40F947BF287E40F947BF20E
:10EE000088E40F947BF28AE40F947BF28BE40F94F6
:10EE10007BF28CE40F947BF299CD88ED92EE62E068
:10EE20000F94F5F1772473948824992409C48FED05
:10EE300092EE62E00F94F5F140910A0250910B02BC
:10EE400060910C0270910D0282E020E10F9491F22A
:10EE500080910A0290910B02A0910C02B0910D02D8
:10EE600080509F4FAF4FBF4F80930A0290930B0289
:10EE7000A0930C02B0930D0269CD8AEE92EE62E08F
:10EE80000F94F5F184EE90EE60E00F94F5F18FECC5
:10EE900091EE60E00F94F5F1662477244301CC5D98
:10EEA000DE4F19821882C452D140D401C301B695F5
:10EEB000A79597958795CA5DDE4F88839983AA8326
:10EEC000BB83C652D140CC5DDE4FA881B981C4520C
:10EED000D1401196CC5DDE4FB983A883C452D14096
:10EEE000CD0162E070E00F9434F2B0E2B093C6005E
:10EEF0008091C00086FFFCCF8091C0008064809329
:10EF0000C000EDE2E093C6008091C00086FFFCCF18
:10EF10008091C00080648093C000F0E2F093C6004E
:10EF20008091C00086FFFCCF8091C00080648093F8
:10EF3000C000CA5DDE4FE880F9800A811B81C6529D
:10EF4000D140BB27A12F902F8F2D0F940DF2CA5DBA
:10EF5000DE4F8881C652D1400F940DF2B0E2FB2EF5
:10EF6000F092C6008091C00086FFFCCF8091C00067
:10EF700080648093C0000DE30093C6008091C000C0
:10EF800086FFFCCF8091C00080648093C00010E2B7
:10EF90001093C6008091C00086FFFCCF8091C00016
:10EFA00080648093C0008BBEF3012791C65DDE4F65
:10EFB0002883CA52D140A22EBB24CC24DD2408943D
:10EFC000611C711C811C911C8BBEF3018791282E42
:10EFD0003324442455240894611C711C811C911C09
:10EFE0008BBEF3013791C55DDE4F3883CB52D140E4
:10EFF0000894611C711C811C911C8BBEF30147910C
:10F00000C45DDE4F4883CC52D140ADEFEA2EAFEF66
:10F01000FA2EAFEF0A2FAFEF1A2F6E0C7F1C801E57
:10F02000911E142D032DF22CEE24EA0CFB1C0C1D5A
:10F030001D1D0F940DF220E22093C6008091C000A8
:10F0400086FFFCCF8091C00080648093C000C65DC5
:10F05000DE4F8881CA52D1400F940DF230E23093D6
:10F06000C6008091C00086FFFCCF8091C000806404
:10F070008093C000C45DDE4F8881CC52D1400F9494
:10F080000DF240E24093C6008091C00086FFFCCFA5
:10F090008091C00080648093C000C55DDE4F888190
:10F0A000CB52D1400F940DF250E25093C6008091A4
:10F0B000C00086FFFCCF8091C00080648093C000B8
:10F0C0008FEFE8168FEFF80680E0080780E018075A
:10F0D00031F484E092EE60E00F94C2F1DFC0D80119
:10F0E000C7018070907CA070B0708050904CA040A0
:10F0F000B040D1F52FEF3FE340E050E0E222F322B1
:10F1000004231523CA5DDE4FA880B980CA80DB8046
:10F11000C652D140AE0CBF1CC01ED11EAA0CBB1CD7
:10F12000CC1CDD1C8EE092EE60E00F94C2F1BB2798
:10F13000A12F902F8F2D0F940DF28E2D0F940DF285
:10F1400030E23093C6008091C00086FFFCCF8091F2
:10F15000C00080648093C0004EE34093C60080915D
:10F16000C00086FFFCCF87C08EE09EEFA0E0B0E03D
:10F17000E822F9220A231B239CE0E91694E9F90608
:10F1800090E0090790E0190709F088C0C45DDE4FE0
:10F19000A881CC52D140EA2EFF2400E010E0102FCD
:10F1A0000F2DFE2CEE24C55DDE4FB881CB52D14031
:10F1B000EB0EF11C011D111DD601C501817090706F
:10F1C000A070B070DC0199278827E80EF91E0A1F8D
:10F1D0001B1F20EF30E040E050E0A222B322C42207
:10F1E000D52241E1AA0CBB1CCC1CDD1C4A95D1F7F1
:10F1F000EA0CFB1C0C1D1D1D81E090E0A0E0B0E0BE
:10F20000282239224A225B2235E1220C331C441C7D
:10F21000551C3A95D1F7E20CF31C041D151D57013E
:10F220006801AA0CBB1CCC1CDD1C85E192EE60E0E1
:10F230000F94C2F1C801AA27BB270F940DF2BB2778
:10F24000A12F902F8F2D0F940DF28E2D0F940DF274
:10F2500090E29093C6008091C00086FFFCCF809121
:10F26000C00080648093C000AEE3A093C60080918C
:10F27000C00086FFFCCF8091C00080648093C000F6
:10F28000C601AA27BB270F940DF2BB27AD2D9C2DDD
:10F290008B2D0F940DF28A2D0F940DF20F94DCF14B
:10F2A000CC5DDE4FE881F981C452D140F99709F471
:10F2B0004DCBF4E0EF2EF12C012D112D6E0C7F1CA7
:10F2C000801E911EF2CD83E093EE62E00F94F5F183
:10F2D0008AE192EE60E00F94C2F18091C00087FF56
:10F2E000FCCF1091C6001F751093C6008091C0001E
:10F2F00086FFFCCF8091C00080648093C0000F9493
:10F30000DCF1812F81548A3108F036C1163409F4BA
:10F3100095C0173490F4133409F44EC0143430F40B
:10F320001134F1F0123409F01DC130C0143409F465
:10F3300059C0153409F016C16BC01A3409F4C4C0A1
:10F340001B3438F4173409F48FC0183409F00AC19B
:10F35000A1C01B3409F4D2C01C3409F003C1E8C0B9
:10F360008FEF81B90DC082B1809582B980E090E0C5
:10F37000E0EDF7E03197F1F70196883C9105C1F790
:10F380008091C00087FFEFCF12B8EFC08FEF84B934
:10F390000DC085B1809585B980E090E0E0EDF7E0A3
:10F3A0003197F1F70196883C9105C1F78091C00033
:10F3B00087FFEFCF15B8D9C08FEF87B90DC088B1DF
:10F3C000809588B980E090E0E0EDF7E03197F1F7C3
:10F3D0000196883C9105C1F78091C00087FFEFCF6F
:10F3E00018B8C3C08FEF8AB90DC08BB180958BB9A7
:10F3F00080E090E0E0EDF7E03197F1F70196883C8E
:10F400009105C1F78091C00087FFEFCF1BB8ADC059
:10F410008FEF8DB90DC08EB180958EB980E090E0F0
:10F42000E0EDF7E03197F1F70196883C9105C1F7DF
:10F430008091C00087FFEFCF1EB897C08FEF80BBD1
:10F440000DC081B3809581BB80E090E0E0EDF7E0F6
:10F450003197F1F70196883C9105C1F78091C00082
:10F4600087FFEFCF11BA81C08FEF83BB0DC084B38C
:10F47000809584BB80E090E0E0EDF7E03197F1F714
:10F480000196883C9105C1F78091C00087FFEFCFBE
:10F4900014BA6BC08FEF809301010FC080910201FD
:10F4A00080958093020180E090E0E0EDF7E03197F5
:10F4B000F1F70196883C9105C1F78091C00087FF64
:10F4C000EDCF1092020151C08FEF809304010FC065
:10F4D0008091050180958093050180E090E0E0ED4A
:10F4E000F7E03197F1F70196883C9105C1F78091DB
:10F4F000C00087FFEDCF1092050137C08FEF8093DA
:10F5000007010FC08091080180958093080180E079
:10F5100090E0E0EDF7E03197F1F70196883C910536
:10F52000C1F78091C00087FFEDCF109208011DC088
:10F530008FEF80930A010FC080910B01809580931B
:10F540000B0180E090E0E0EDF7E03197F1F70196F4
:10F55000883C9105C1F78091C00087FFEDCF1092E4
:10F560000B0103C085E292EEEEC98091C00087FFD7
:10F57000FCCF8091C600EAC988E392EEE4C98CE131
:10F5800091EEE1C988249924933011F1943028F444
:10F59000913089F09230B8F408C0953061F195301F
:10F5A000F0F0963009F048C043C02B3109F042C951
:10F5B00091E06BE13FC96227C15DDE4F2883CF52E6
:10F5C000D14092E037C9B22FA0E0622793E032C960
:10F5D000822F90E0A82BB92B622794E02BC92E3004
:10F5E00009F039C3622795E0C05DDE4F19821882A9
:10F5F000C053D1401FC9E1E0F0E0EC0FFD1FC05D3A
:10F60000DE4F08811981C053D140E00FF11F2083E4
:10F610000F5F1F4FC05DDE4F19830883C053D14079
:10F6200062270A171B0709F005C9D80196E002C92D
:10F63000261709F010C303C0973009F0FBC87724E0
:10F640009981933109F412C19431C8F4963009F4C8
:10F65000D8C0973050F4923009F406C1933009F4C1
:10F660006DC0913009F059C253C0913109F477C08F
:10F67000923108F0BBC0903109F04FC2F5C098310B
:10F6800009F487C0993150F4953109F4EFC09531F0
:10F6900008F4C6C1963109F040C2C2C19A3109F4DA
:10F6A0006CC09A3108F491C09B3109F45BC09D3164
:10F6B00009F033C29D81903359F48F81882311F46E
:10F6C0009EE11CC0813011F091E018C098E916C08D
:10F6D000892F807591F0903539F4E0E0F0E089E011
:10F6E0008093570094910AC0983539F4E3E0F0E034
:10F6F00089E080935700949101C090E01A821B82A8
:10F700008D818C831D829E831F8227E030E009C299
:10F710001A8288E08B8381E48C8386E58D8382E581
:10F720008E8389E48F8383E5888780E589878FE5E9
:10F730008A8782E38B872BE030E0F3C18A818139AD
:10F7400041F0823941F0803911F48FE005C080E04A
:10F7500003C082E001C08AE01A828B8344C0772410
:10F76000739482C08D81882311F48EE12CC0813086
:10F7700011F081E028C088E926C01A82E1E0F0E0BB
:10F7800089E08093570084918B831C8224E030E0D1
:10F79000C8C18B81803589F48C81883039F4E2E0EE
:10F7A000F0E089E08093570084910DC0E0E0F0E044
:10F7B00089E080935700849106C0E3E0F0E089E09F
:10F7C0008093570084911A82DFCF8D81836C99E0FA
:10F7D000E1E0F0E0082E90935700E89507B600FCB2
:10F7E000FDCF1A821B8223E030E09BC180EC8A832C
:10F7F000CE5CDE4F188219821A821B82C253D1401E
:10F800008EC18A8190E0A0E0B0E0582F44273327D2
:10F8100022278B8190E0A0E0B0E0DC0199278827C7
:10F82000282B392B4A2B5B2B8D8190E0A0E0B0E098
:10F83000282B392B4A2B5B2B8C8190E0A0E0B0E089
:10F84000BA2FA92F982F8827282B392B4A2B5B2BCF
:10F85000220F331F441F551FC05EDE4F288339839C
:10F860004A835B83C052D1401A8259C13A81C95C34
:10F87000DE4F3883C753D140CA5CDE4F1882C6536F
:10F88000D1408B81C82EDD24CA5CDE4F488159816E
:10F89000C653D140C42AD52A933109F082C0CE5C28
:10F8A000DE4F88819981AA81BB81C253D1408050AB
:10F8B000904CA340B04030F583E0CE5CDE4FE88052
:10F8C000F9800A811B81C253D140F70100935B008C
:10F8D00080935700E89507B600FCFDCFCE5CDE4F65
:10F8E000088119812A813B81C253D14000501F4FAA
:10F8F0002F4F3F4FCE5CDE4F088319832A833B8313
:10F90000C253D140C05EDE4F488159816A817B81FC
:10F91000C052D140DE011B9631E08C9111962C91A2
:10F9200011971296C75CDE4F2883C953D140C85C3B
:10F93000DE4F1882C853D14090E0C85CDE4FE881AA
:10F94000F981C853D1408E2B9F2B0C01FA01609393
:10F950005B0030935700E89511244E5F5F4F6F4F67
:10F960007F4F0EEFE02E0FEFF02ECE0CDF1CC114F8
:10F97000D10499F685E0C05EDE4F088119812A81A5
:10F980003B81C052D140F80120935B008093570027
:10F99000E89507B600FCFDCF81E180935700E8951C
:10F9A00035C0C05EDE4F88819981AA81BB81C0527B
:10F9B000D140B695A795979587957C018601ABE0D8
:10F9C000AA2EB12CAC0EBD1E0BC0D5016D915D01F0
:10F9D000C7010F947FFE0894E11CF11C01501040F8
:10F9E0000115110591F7A60160E070E0440F551F65
:10F9F000661F771FC05EDE4FE880F9800A811B8199
:10FA0000C052D1404E0D5F1D601F711F1A82C05E33
:10FA1000DE4F488359836A837B83C052D1407FC0C5
:10FA2000FA80C55CDE4FF882CB53D140C65CDE4F16
:10FA30001882CA53D1408B81C82EDD24C65CDE4FAC
:10FA400008811981CA53D140C02AD12A1A828981DA
:10FA5000BE016D5F7F4F843121F59601C05EDE4FA0
:10FA6000E880F9800A811B81C052D1400BBFF701A9
:10FA700087919691DB018C9311969C936E5F7F4FDB
:10FA8000D801C7010296A11DB11DC05EDE4F88835B
:10FA90009983AA83BB83C052D14022503040F1F6F3
:10FAA00036C0C05EDE4F288139814A815B81C052F9
:10FAB000D1400894C108D108760100E010E0089414
:10FAC000C11CD11C0894E11CF11C011D111DE20E8A
:10FAD000F31E041F151F21BDBB27A52F942F832FB5
:10FAE00082BD2F5F3F4F4F4F5F4FF89A80B5DB01CC
:10FAF0008D93BD012E153F054007510761F7C05E8C
:10FB0000DE4F288339834A835B83C052D1409601FC
:10FB10002D5F3F4FFB01108204C080EC8A8322E0FE
:10FB200030E08BE18093C6008091C00086FFFCCF5F
:10FB30008091C00080648093C000C15DDE4FF88179
:10FB4000CF52D140F093C6008091C00086FFFCCF19
:10FB50008091C00080648093C000432F3093C60022
:10FB60008091C00086FFFCCF8091C00080648093AC
:10FB7000C000922F2093C6008091C00086FFFCCF6A
:10FB80008091C00080648093C0008EE08093C600A6
:10FB90008091C00086FFFCCF8091C000806480937C
:10FBA000C00065E1C15DDE4FE880CF52D1406E25D7
:10FBB00069276427FE01319610C090819093C6009A
:10FBC0008091C00086FFFCCF31968091C000806498
:10FBD0008093C0006927215030402115310569F715
:10FBE0006093C6008091C00086FFFCCF8091C0006A
:10FBF00080648093C00085B1805885B9772081F4F6
:10FC0000C15DDE4F0881CF52D1400F5FC15DDE4F35
:10FC10000883CF52D14090E0A0E0B0E00D941AF4F8
:10FC200027982F9880E090E020ED37E0F901319798
:10FC3000F1F7019684369105C9F700008091C00064
:10FC40008D7F8093C00081E180935700E895EE2777
:10FC5000FF270994FFCF90E00D941AF497FB092E2B
:10FC600007260AD077FD04D02ED006D000201AF443
:10FC7000709561957F4F0895F6F7909581959F4F08
:10FC80000895A1E21A2EAA1BBB1BFD010DC0AA1FDD
:10FC9000BB1FEE1FFF1FA217B307E407F50720F0F5
:10FCA000A21BB30BE40BF50B661F771F881F991F70
:10FCB0001A9469F760957095809590959B01AC01B9
:10FCC000BD01CF010895AA1BBB1B51E107C0AA1FAC
:10FCD000BB1FA617B70710F0A61BB70B881F991FED
:10FCE0005A95A9F780959095BC01CD010895F99991
:10FCF000FECF92BD81BDF89A992780B50895262F31
:10FD0000F999FECF1FBA92BD81BD20BD0FB6F89400
:0EFD1000FA9AF99A0FBE01960895F894FFCF63
:00000001FF
