:100000000C9451010C9482010C9482010C94820195
:100010000C9482010C9482010C9482010C94820154
:100020000C9482010C9482010C9482010C94820144
:100030000C9482010C9482010C9482010C94820134
:100040000C9482010C9482010C9482010C94820124
:100050000C9482010C9482010C9482010C94FF098F
:100060000C9482010C94C9090C949F090C94820190
:100070000C9482010C9482010C9482010C948201F4
:100080000C9482010C9482010C9482010C948201E4
:100090000C9482010C9482010C9482010C94490A04
:1000A0000C9482010C9482010C9482010C948201C4
:1000B0000C9482010C9482010C9482010C948201B4
:1000C0000C9482010C9482010C9482010C948201A4
:1000D0000C9482010C9482010C9482010C94820194
:1000E0000C9482010C9487060C946B030C946D0B9A
:1000F0000C9424060C9446020C9411060C94DD0317
:100100000C94AC030C947D030C9486030C940106B0
:100110000C94AB030C9455020C94B0030C948A031A
:100120000C9419020C9490030C94AF020C944E049E
:100130000C9469020C9494030C9418020C94A2037E
:100140000C9402060C94FC020C9458060C94750353
:100150000C94AA040C945A080C9480030C94170273
:100160000C9477020C942B060C9498030C940E04B8
:100170000C94A6030C949E030C9471030C947903C5
:1001800000002100240027002A002D003000330049
:1001900001010000040107010A01000022002500FE
:1001A00028002B002E003100340002010000050160
:1001B00008010B01000020002300260029002C006C
:1001C0002F003200000100000301060109010505AE
:1001D0000505070508080808020202020A0A0808BD
:1001E00004040404010101010101010103030303EB
:1001F00003030303040707070C0C0C0C0C0C0C0C7A
:100200000202020206060606060606060B0B0B0B8A
:100210000B0B0B0B010210202008081020401020AF
:1002200040800201020108040201010204081020BA
:1002300040808040201008040201800402018040B8
:100240002010080402010804020101020408102021
:100250004080010204081020408000000A0B0209BF
:100260000C0D0E0807030401000000000000000050
:10027000000000000000000000000000000000007E
:10028000000000000000121110000000000000003B
:10029000000000000000000000000000000000005E
:1002A0006D0B11241FBECFEFD1E2DEBFCDBF00E04A
:1002B0000CBF13E0A0E0B2E0EEEFF2E200E00BBF13
:1002C00002C007900D92A43AB107D9F725E0A4EA3D
:1002D000B3E001C01D92A13AB207E1F711E0C1E518
:1002E000D1E000E006C021970109802FFE010E94A5
:1002F0006E11C035D10780E00807A9F70E94380CBD
:100300000C947D110C94000096E0899FD00111247B
:10031000A65EBA4F90967C936E935F9791E091960C
:100320009C939197E0918705F091880590918605BF
:10033000992339F0309751F0811108C0809136052A
:100340001994309719F05C968C91FACF0895CF925A
:10035000DF92EF92FF920F931F9396E0899FF00137
:100360001124E65EFA4F11A2278D30A1213031050C
:1003700051F178F02230310509F451C023303105B4
:1003800009F452C01F910F91FF90EF90DF90CF9032
:1003900008956623B9F361E070E00E9484012FB7ED
:1003A000F89480911D0490911E04A0911F04B091B7
:1003B00020042FBF8093720590937305A09374055A
:1003C000B0937505DFCF9FB7F894C0901D04D0900F
:1003D0001E04E0901F04F09020049FBF009172055E
:1003E000109173052091740530917505C01AD10ADA
:1003F000E20AF30A009184051091850530E020E0BF
:100400000C151D052E053F0550F462E070E01F91AC
:100410000F91FF90EF90DF90CF900C9484016111C9
:10042000B1CF63E070E0F3CF70E060E0F0CF08950B
:100430000895AF92BF92CF92DF92EF92FF920F9307
:100440001F93CF93DF936C017B018B01040F151F6A
:10045000EB015E01AE18BF08C017D10759F06991D2
:10046000D601ED91FC910190F081E02DC601199526
:10047000892B79F7C501DF91CF911F910F91FF90E3
:10048000EF90DF90CF90BF90AF900895FC01538D17
:10049000448D252F30E0842F90E0821B930B54175E
:1004A00010F0CF96089501970895FC01918D828DEB
:1004B000981761F0A28DAE0FBF2FB11D5D968C9184
:1004C000928D9F5F9F73928F90E008958FEF9FEFC3
:1004D0000895FC01918D828D981731F0828DE80F7F
:1004E000F11D858D90E008958FEF9FEF0895FC0139
:1004F000918D228D892F90E0805C9F4F821B910906
:100500008F739927089581E794E00E94770221E094
:10051000892B09F420E0822F0895FC01A48DA80FF7
:10052000B92FB11DA35ABF4F2C91848D90E0019635
:100530008F739927848FA689B7892C93A089B18955
:100540008C91837080648C93938D848D981306C0F6
:100550000288F389E02D80818F7D80830895EF925A
:10056000FF920F931F93CF93DF93EC0181E0888F6D
:100570009B8D8C8D98131AC0E889F989808185FF3D
:1005800015C09FB7F894EE89FF896083E889F989DF
:1005900080818370806480839FBF81E090E0DF91E1
:1005A000CF911F910F91FF90EF900895F62E0B8D34
:1005B00010E00F5F1F4F0F731127E02E8C8D8E11EF
:1005C0000CC00FB607FCFACFE889F989808185FF56
:1005D000F5CFCE010E948D02F1CFEB8DEC0FFD2FF8
:1005E000F11DE35AFF4FF0829FB7F8940B8FEA8911
:1005F000FB8980818062CFCFCF93DF93EC01888D20
:100600008823B9F0AA89BB89E889F9898C9185FD8D
:1006100003C0808186FD0DC00FB607FCF7CF8C911B
:1006200085FFF2CF808185FFEDCFCE010E948D0244
:10063000E9CFDF91CF91089580E090E0892B29F0F8
:100640000E94830281110E94000080E090E0892BCB
:1006500049F080E090E0892B29F00E940000811190
:100660000E94000080E090E0892B49F080E090E05B
:10067000892B29F00E94000081110E94000080E077
:1006800090E0892B49F080E090E0892B29F00E94CE
:10069000000081110C94000008958150823108F00F
:1006A0005AC0E82FF0E08827E75AFC4F8F4F0C9490
:1006B0006E1179037D036B0371037503AB03800334
:1006C00086038A039003940398039E03A203AB035B
:1006D000A603AC03B003809180008F7780938000E5
:1006E0000895809180008F7DF9CF80918000877F71
:1006F000F5CF84B58F7784BD089584B58F7DFBCF0A
:100700008091B0008F778093B00008958091B00001
:100710008F7DF9CF809190008F778093900008951E
:10072000809190008F7DF9CF80919000877FF5CFE9
:100730008091A0008F778093A00008958091A00001
:100740008F7DF9CF8091A000877FF5CF8091200128
:100750008F77809320010895809120018F7DF9CFBC
:1007600080912001877FF5CFCF93DF93282F30E052
:10077000F901E65AFD4F8491F901EC5EFD4FD491E9
:10078000F901E253FE4FC491CC23A1F081110E94E4
:100790004D03EC2FF0E0EE0FFF1FEC54FE4FA59140
:1007A000B491EC91ED2381E090E009F480E0DF91D9
:1007B000CF91089580E090E0FACF862F0C94B40397
:1007C0001F93CF93DF93282F30E0F901E65AFD4FB6
:1007D0008491F901EC5EFD4FD491F901E253FE4F93
:1007E000C491CC23A9F0162F81110E944D03EC2F48
:1007F000F0E0EE0FFF1FE656FE4FA591B4918FB7C4
:10080000F894EC91111108C0D095DE23DC938FBFD2
:10081000DF91CF911F910895DE2BF8CF862F642FA3
:100820000C94E003CF93DF9390E0FC01EC5EFD4F6E
:10083000249182539E4FFC0184918823C9F090E05B
:10084000880F991FFC01E058FE4FA591B491FC015F
:10085000E656FE4FC591D49161110DC09FB7F89433
:100860008C91209582238C938881282328839FBF95
:10087000DF91CF910895623051F49FB7F8943C9185
:10088000822F809583238C93E8812E2BEFCF8FB717
:10089000F894EC912E2B2C938FBFEACF862F642FE8
:1008A0000C9412043FB7F8948091090490910A04C3
:1008B000A0910B04B0910C0426B5A89B05C02F3F56
:1008C00019F00196A11DB11D3FBFBA2FA92F982F76
:1008D0008827BC01CD01620F711D811D911D42E071
:1008E000660F771F881F991F4A95D1F708958F9239
:1008F0009F92AF92BF92CF92DF92EF92FF926B01E5
:100900007C010E9452044B015C01C114D104E1043A
:10091000F104B9F00E945204681979098A099B0907
:10092000683E73408105910580F321E0C21AD10829
:10093000E108F10888EE880E83E0981EA11CB11C26
:10094000E4CFFF90EF90DF90CF90BF90AF909F905B
:100950008F90089508952091E503260F3327331FC4
:1009600021323105ECF420914704FC0190E080E055
:10097000243069F082E00895A091E5032191AC0153
:100980004B535C4FA40FB52FB11D2C9301968617C6
:1009900098F38091E503680F6093E50380E0089584
:1009A00081E008951092470481E0809346041092FC
:1009B000210461E084E10E94E00361E085E10E949E
:1009C000E003E9EBF0E080818E7F808380818D7F82
:1009D000808388E48093B80085E48093BC00089508
:1009E000CF93DF9391E09093C4038823B9F0C09133
:1009F000B800D091BA008091BC008A7B8093BC0083
:100A000060E084E10E94E00360E085E10E94E00391
:100A10000E94D204D093BA00C093B800DF91CF9166
:100A200008958F929F92AF92BF92CF92DF92EF92F2
:100A3000FF920F931F93CF93DF93D0917004D13225
:100A400008F0D7C0182FC0916F040E9452046B01A8
:100A50007C018091470481116BC082E08093470440
:100A6000109346048FEF8093450410924404D09372
:100A70004304AFE4B4E0E3E2F4E080E0D81391C0D3
:100A80001092220480912204CC0FC82BC093220420
:100A900080912104813009F088C0109221040E94C5
:100AA00052046B017C01809122048093BB008091F1
:100AB000490490914A04A0914B04B0914C04892BB5
:100AC0008A2B8B2BA1F00E945204009149041091B3
:100AD0004A0420914B0430914C046C197D098E0915
:100AE0009F09061717072807390708F442C08091A5
:100AF000BC0083FDD8CF85EC8093BC000E945204DB
:100B00006B017C0180914704823009F450C08091D0
:100B100045048F3F09F46FC080914504803209F489
:100B20006CC080914504803309F469C084E026C01C
:100B30008091490490914A04A0914B04B0914C04D7
:100B4000892B8A2B8B2B09F484CF0E94520480902E
:100B5000490490904A04A0904B04B0904C046C1946
:100B60007D098E099F0986169706A806B90608F022
:100B700070CF809148040E94F00485E010924E04EA
:100B80001092700410924D04DF91CF911F910F913C
:100B9000FF90EF90DF90CF90BF90AF909F908F909D
:100BA00008959D9191938F5F69CF85EEA5CF809138
:100BB000490490914A04A0914B04B0914C04892BB4
:100BC0008A2B8B2B09F49ECF0E945204009149047A
:100BD00010914A0420914B0430914C046C197D090A
:100BE0008E099F09061717072807390708F08ACFCB
:100BF000C0CF81E0C3CF80E0C1CF82E0BFCF83E030
:100C0000BDCF0895E091120480911104E81730F4EB
:100C1000F0E0EC55FC4F808190E008958FEF9FEF5E
:100C2000089590911204809111042FEF3FEF9817CF
:100C300048F4E92FF0E0EC55FC4F208130E09F5F55
:100C400090931204C90108958091110490911204A7
:100C5000891B990B0895CF92DF92EF92FF920F9329
:100C60001F93CF93DF937C01CB018A0120914D0428
:100C7000222389F0EB016B01C40ED51ECC15DD05D6
:100C800069F06991D701ED91FC910190F081E02D1F
:100C9000C7011995F3CF642F0E94AB04C801DF91FF
:100CA000CF911F910F91FF90EF90DF90CF9008951B
:100CB000CF93DF931F92CDB7DEB7698320914D04A8
:100CC0002223F9F020917004203258F021E030E026
:100CD000FC013383228390E080E00F90DF91CF917D
:100CE000089580914E04E82FF0E0E15BFB4F99817D
:100CF00090838F5F80934E048093700481E090E036
:100D0000ECCF61E0CE0101960E94AB04F7CF90E0FA
:100D100080E00895CF93C62F91E090934D0490E525
:100D200090936F0410924E0410927004682F8EE01E
:100D300095E00E9458066C2F8EE095E00E945806C0
:100D400081E0CF910C9411058F929F92AF92BF9248
:100D50000F931F93CF93DF93CDB7DEB7A1970FB655
:100D6000F894DEBF0FBECDBF19A2423008F44AE0AE
:100D70008E010F5D1F4F842E912CB12CA12CA5014B
:100D800094010E944C11E62FB901CA01EA3044F5E2
:100D9000E05DD801EE938D01232B242B252B79F7D1
:100DA00090E080E0109769F0FD0101900020E9F7E4
:100DB0003197AF014A1B5B0BBD0189E895E00E94AA
:100DC0001902A1960FB6F894DEBF0FBECDBFDF911A
:100DD000CF911F910F91BF90AF909F908F900895EA
:100DE000E95CD7CFFC0101900020E9F73197AF0112
:100DF000481B590BBC0189E895E00C941902682F37
:100E000070E090E080E04AE00C94A406CF93DF937A
:100E1000EC0160E08E810E94E00361E08E810E941F
:100E2000E00360E08E810E94E0038BE891E001978F
:100E3000F1F7DF91CF910895CF92DF92EF92FF9279
:100E40000F931F93CF93DF936C017C0187E0E80E33
:100E5000F11CD0E0C0E0062F10E0B8010C2E02C05B
:100E6000759567950A94E2F76170F70181917F01AA
:100E70000E94E0032196C430D10579F7C601DF91C5
:100E8000CF911F910F91FF90EF90DF90CF900C9436
:100E90000607CF92DF92EF92FF920F931F93CF93AB
:100EA000DF93EC01F62E642F8C810E94E0038D818C
:100EB0008F3F19F060E00E94E0030F2D10E08F8556
:100EC00084FF25C06E0187E0C80ED11CF12CE12CF7
:100ED000B8010E2C02C0759567950A94E2F761700F
:100EE000F60181916F010E94E003FFEFEF1AFF0A04
:100EF00088E0E816F10461F7CE01DF91CF911F91F0
:100F00000F91FF90EF90DF90CF900C940607B801FF
:100F100084E0759567958A95E1F7CE010E941C07DC
:100F20006F2DCE01DF91CF911F910F91FF90EF9028
:100F3000DF90CF900C941C0740E0682F89E895E083
:100F40000C94490781E00E949C078BE39FE1019785
:100F5000F1F70895CF93DF93823029F490919805AB
:100F600098609093980580939C0510929D0580E46D
:100F700080939E0580E180939F0580E58093A00586
:100F800061E080918D050E94120480918E058F3F53
:100F900019F061E00E94120461E080918F050E94C7
:100FA0001204C9E8D5E09E01295835408091980582
:100FB00084FD0BC084E090E021962817390744F4A3
:100FC00061E08E810E941204EECF88E090E0F4CFC1
:100FD0008BE39DE00197F1F760E080918D050E9421
:100FE000E00360E080918F050E94E00380918E0510
:100FF0008F3F19F060E00E94E0038091980584FD26
:1010000034C063E089E895E00E941C07CBE4D6E495
:10101000CE010197F1F763E089E895E00E941C0793
:101020002197F1F763E089E895E00E941C0783E5CA
:1010300092E00197F1F762E089E895E00E941C07D1
:101040008091980580620E949C0784E080939905B6
:101050008CE00E949C070E94A20782E080939A0580
:1010600086E0DF91CF910C949C0780620E949C07E0
:101070008BE496E40197F1F78091980580620E94D5
:101080009C0783E592E00197F1F7809198058062D3
:101090000E949C07D5CF90919C05691710F06FEFC7
:1010A000690FE62FF0E0E757FA4F9489890F8068BF
:1010B0000C949C0741E00E94490781E090E008956C
:1010C000CF92DF92EF92FF926C01990FEE08FF082A
:1010D000F7FE16C041E06DE289E895E00E944907FD
:1010E00066277727CB016C197D098E099F094AE095
:1010F0000E94A4060196FF90EF90DF90CF90089594
:101100004AE0C701B601FF90EF90DF90CF900C94BA
:10111000A406CF92DF92EF92FF920F931F9391E07C
:1011200090934D0490E590936F0410924E041092AA
:101130007004682F8EE095E00E94580681E00E94BE
:1011400011050E9452046B017C01809147048111BA
:1011500063C081E080934704809346049FEF90939F
:101160004504109244041092430480932204809119
:101170002204806A8093220480912104813009F046
:1011800080C0109221040E9452046B017C01809166
:1011900022048093BB008091490490914A04A0915D
:1011A0004B04B0914C04892B8A2B8B2BA1F00E940D
:1011B00052040091490410914A0420914B0430914B
:1011C0004C046C197D098E099F090617170728071B
:1011D000390708F442C08091BC0083FDD8CF85EC6C
:1011E0008093BC000E9452046B017C0180914704F3
:1011F000813009F448C080914404811166C0809117
:101200004404A3E2B4E0E4EAF3E090E0981751F17B
:101210002D9121939F5FFACF8091490490914A04C8
:10122000A0914B04B0914C04892B8A2B8B2B09F491
:101230008CCF0E9452040091490410914A042091DD
:101240004B0430914C046C197D098E099F090617D7
:1012500017072807390708F078CF809148040E94C3
:10126000F00480E010921204809311048EE095E067
:101270000E9411061F910F91FF90EF90DF90CF9089
:10128000089585EEADCF8091490490914A04A091D4
:101290004B04B0914C04892B8A2B8B2B09F4A6CFDD
:1012A0000E9452040091490410914A0420914B0479
:1012B00030914C046C197D098E099F090617170798
:1012C0002807390708F092CFC8CF81E09ACF85ED83
:1012D0008093BC008091490490914A04A0914B04F2
:1012E000B0914C040796A11DB11D23E0B695A795BA
:1012F000979587952A95D1F72091BC0024FD03C0CE
:101300001092470408954091490450914A04609115
:101310004B0470914C04452B462B472B69F30097E7
:10132000A105B10541F025E32A95F1F700000197E9
:10133000A109B109E1CF809148040C94F0041F92F7
:101340000F920FB60F9211240BB60F922F933F936B
:101350004F935F936F937F938F939F93AF93BF93BD
:10136000EF93FF9381E794E00E948D02FF91EF914C
:10137000BF91AF919F918F917F916F915F914F91AD
:101380003F912F910F900BBE0F900FBE0F901F90AB
:1013900018951F920F920FB60F9211240BB60F9251
:1013A0002F938F939F93EF93FF93E0918104F0919C
:1013B00082048081E0918704F091880482FD1DC041
:1013C000908180918A048F5F8F7320918B048217A4
:1013D00041F0E0918A04F0E0EF58FB4F958F809345
:1013E0008A04FF91EF919F918F912F910F900BBEE7
:1013F0000F900FBE0F901F9018958081F2CF1F9213
:101400000F920FB60F9211242F933F938F939F93B8
:10141000AF93BF9380911D0490911E04A0911F046F
:10142000B09120043091080423E0230F2D3758F5A4
:101430000196A11DB11D2093080480931D04909373
:101440001E04A0931F04B09320048091090490917E
:101450000A04A0910B04B0910C040196A11DB11DCA
:101460008093090490930A04A0930B04B0930C0496
:10147000BF91AF919F918F913F912F910F900FBE90
:101480000F901F90189526E8230F0296A11DB11DFD
:10149000D2CF1F920F920FB60F9211240BB60F925C
:1014A0002F933F934F935F936F937F938F939F936C
:1014B000AF93BF93EF93FF938091B900887F8036FD
:1014C00009F44DC008F040C0883209F4A9C028F5DD
:1014D000803109F49DC0C8F4882309F4FBC088302A
:1014E00009F496C0FF91EF91BF91AF919F918F91B9
:1014F0007F916F915F914F913F912F910F900BBE14
:101500000F900FBE0F901F901895883109F488C076
:10151000803241F78093450414C0803409F49DC0A3
:1015200040F48033B9F38833E9F68093450485ECC1
:10153000B0C0803509F485C0883509F496C0883478
:1015400089F60E946709CECF883909F48CC038F536
:10155000883729F050F4883611F0803719F683E087
:10156000809347041092070457C0883809F47BC061
:10157000803919F0803809F0B5CF809107048032A6
:1015800008F071C0E091070481E08E0F809307049A
:101590008091BB00F0E0E951FC4F80833DC0803B6F
:1015A00039F0E0F4803A09F479C0883A09F09ACF2A
:1015B00084E0809347041092E6031092E503E091E3
:1015C0000F04F091100419958091E50381110FC06B
:1015D00081E08093E5031092C50309C0803C09F4C3
:1015E000A6CF883C09F4A3CF883B09F07BCFE091DC
:1015F000E60381E08E0F8093E603F0E0EB53FC4FAF
:1016000080818093BB009091E6038091E50329C01F
:10161000809122048093BB0085EC8093BC0062CF54
:101620009091440480914304981758F5E091440444
:1016300081E08E0F80934404F0E0ED5DFB4F8081EC
:10164000E9CFE091440481E08E0F809344048091BF
:10165000BB00F0E0ED5DFB4F8083909144048091EE
:1016600043049817C8F285E8D8CFE091440481E09C
:101670008E0F809344048091BB00F0E0ED5DFB4F42
:1016800080838091460481115CCF81E080932104A6
:1016900084EA8093BC001092470424CF85EC8093A9
:1016A000BC001092470480910704803230F4E0912E
:1016B0000704F0E0E951FC4F10826091070470E0EC
:1016C000E0910D04F0910E0487EE93E019951092CD
:1016D000070408CF1092450434CF1092740410927E
:1016E000730488EE93E0A0E0B0E0809375049093DB
:1016F0007604A0937704B09378042EE132E030931F
:1017000072042093710425EC30E030937E04209322
:101710007D0424EC30E03093800420937F0420EC9F
:1017200030E0309382042093810421EC30E0309348
:1017300084042093830422EC30E0309386042093C9
:10174000850426EC30E030938804209387041092BF
:101750008A0410928B0410928C0410928D041092C3
:101760001105109210058093120590931305A09314
:101770001405B093150580E392E090930F058093D4
:101780000E0510928C0510928B058CE492E09093DC
:101790008A05809389058DE080938D058FEF809376
:1017A0008E058CE080938F0588E08093900589E01A
:1017B000809391058AE0809392058BE08093930556
:1017C0001092940510929505109296051092970527
:1017D0001092980581E00E94AA0710921C051092B1
:1017E000200510921F051092210582E492E090934B
:1017F0001B0580931A05E6E3F5E01082148213823C
:101800001582369685E0E237F807B9F786E092E070
:1018100090937D0580937C0582E092E090937F0514
:1018200080937E0584E080938005809381058AE023
:1018300092E090937B0580937A058AE090E0909304
:1018400083058093820584EF91E0909385058093D2
:1018500084051092880510928705109276051092E3
:1018600077051092780510927905109286050895F3
:10187000789484B5826084BD84B5816084BD85B56B
:10188000826085BD85B5816085BD80916E00816077
:1018900080936E001092810080918100826080931D
:1018A000810080918100816080938100809180001F
:1018B0008160809380008091B10084608093B1004A
:1018C0008091B00081608093B0008091910082602F
:1018D000809391008091910081608093910080912C
:1018E00090008160809390008091A100826080933D
:1018F000A1008091A10081608093A1008091A0004F
:1019000081608093A00080912101826080932101F9
:10191000809121018160809321018091200181606B
:101920008093200180917A00846080937A00809176
:101930007A00826080937A0080917A00816080933F
:101940007A0080917A00806880937A001092C100BA
:10195000109212041092110410924E04109270040E
:101960000E94D20487E192E09093100480930F04C8
:1019700088E192E090930E0480930D04E09181043D
:10198000F091820482E08083E0917D04F0917E04F6
:101990001082E0917F04F09180048FEC808310929C
:1019A0008904E0918504F091860486E08083E091CB
:1019B0008304F0918404808180618083E0918304BA
:1019C000F0918404808188608083E0918304F091A9
:1019D0008404808180688083E0918304F091840492
:1019E00080818F7D808382E00E94AA078091990583
:1019F000982F9260909399058A600E949C0744E01A
:101A000050E062E370E083E194E00E9476110E946E
:101A1000A20760E080E00E944B0884E592E00E940B
:101A2000F20661E080E00E944B0882E692E00E94AC
:101A3000F20660E080E00E948A0668EE73E080E0D3
:101A400090E00E94770462E081E00E948A0668EEDE
:101A500073E080E090E00E94770462E082E00E9400
:101A60008A0668EE73E080E090E00E94770462E00E
:101A700083E00E948A0668EE73E080E090E00E94B6
:101A8000770462E084E00E948A0668EE73E080E0FA
:101A900090E00E9477040E94A20760E080E00E942C
:101AA0004B0881E792E00E94F20664EF71E080E06B
:101AB00090E00E9477040E94A20760E080E00E940C
:101AC0004B0887E792E00E94F20661E080E00E9406
:101AD0004B0887E892E00E94F2066CED75E080E02A
:101AE00090E00E9477040E94A20760E080E00E94DC
:101AF0004B0883E992E00E94F20661E080E00E94D8
:101B00004B0882EA92E00E94F206412C512C3201ED
:101B1000439422242A94322C08EE13E021E02093EF
:101B200086058FB7F89440911D0450911E04609172
:101B30001F04709120048FBF8091760590917705E6
:101B4000A0917805B0917905481B590B6A0B7B0B66
:101B50008091820590918305B0E0A0E084179507FD
:101B6000A607B70708F012C1C0E080918005C8172A
:101B700060F4E0917C05F0917D05EC0FF11D62E0D1
:101B800080810E941204CF5FF0CF912C809181055B
:101B9000981608F05FC0E92CF12CE0917E05F091D9
:101BA0007F05EE0DFF1D61E080810E941204E0912F
:101BB0007E05F0917F05EE0DFF1D60E080810E94A3
:101BC000E003D301C201092C04C0880F991FAA1F8A
:101BD000BB1F0A94D2F75C016C01C094D094812C95
:101BE000809180058816F8F4C82DD0E0E0917C053E
:101BF000F0917D05EC0FFD1F80810E94B4032496B7
:101C0000CC0FDD1FC65EDA4F892B41F488819981A4
:101C10008A299B29998388838394E2CF888199813B
:101C20008C219D21F7CFE0917E05F0917F05EE0D8F
:101C3000FF1D61E080810E94E00380917E0590910C
:101C40007F05E80EF91E60E0F70180810E94120412
:101C500093949CCF9AE1E92E95E0F92EE7018F8DC0
:101C600098A1892B21F41C8E3E8E2D8E19A22696CA
:101C7000F5E0C635DF0799F7D12C80918005D8169D
:101C800008F053C0C12CAD2CB12CAA0CBB1C950183
:101C90002E5D3A4F590120918105C21608F043C0CC
:101CA000F501608171810C2C02C0769567950A94CC
:101CB000E2F7D29E900111242C0D311DEAE1F5E0EE
:101CC00080E0458D568D2417350709F4E3C28F5FF8
:101CD00036968A30B1F760FF24C0EAE1F5E090E083
:101CE00080E0448D411118C0E0917A05F0917B05A8
:101CF000E20FF31F408156E0589FF001599FF00D0D
:101D00001124E65EFA4F448F368F258F10A2178E6E
:101D100061E00E94A70105C0019636968A309105C0
:101D200001F7C394B8CFD394A8CF80E0F70191A175
:101D30009111892FF6E0EF0EF11CCE15DF05B1F7FA
:101D40009FB7F89440911D0450911E0460911F04A8
:101D5000709120049FBF4093760550937705609360
:101D6000780570937905882389F080913B05882355
:101D700069F08091390590913A05019739F4809185
:101D80003605811106C00E941C03C8CE109286053C
:101D9000FACF8F3209F443C11CF58B3209F472C1BA
:101DA0008D3209F4F9C090ED980F9A3060F7909158
:101DB0001A04992309F44BC2C82F880FDD0BE09752
:101DC000D0931C04C0931B041092190410921804A1
:101DD00061E08DE00E944B08CE010E946008D3CFE5
:101DE0008D3309F472C18337F1F60E94A20760E0D7
:101DF00080E00E944B0882EB92E00E94F20661E0D4
:101E000080E00E944B0890911B04892F880F880F57
:101E1000890F8F5F0E9489080E94FF0661E086E3B8
:101E20000E94E00390911B04892F880F880F890F6F
:101E30008F5F0E948908809FB001819F700D1124DF
:101E4000072E000C880B990B0E9477040E94A207B2
:101E500060E080E00E944B088EEB92E00E94F20668
:101E600061E080E00E944B0890911B04892F880F4D
:101E7000880F890F8E5F0E9489080E94FF0661E02B
:101E800089E30E94E00390911B04892F880F880F3B
:101E9000890F8E5F0E948908809FB001819F700D1D
:101EA0001124072E000C880B990B0E9477040E94C6
:101EB000A20760E080E00E944B088CEC92E00E9458
:101EC000F20661E080E00E944B0890911B04892F8C
:101ED000880F880F890F8D5F0E9489080E94FF0676
:101EE00061E08BE30E94E00390911B04892F880F2F
:101EF000880F890F8D5F0E948908809FB001819FA4
:101F0000700D1124072E000C880B990B0E9477048A
:101F10000E94A20760E080E00E944B0885ED92E0FD
:101F20000E94F20661E080E00E944B0890911B0441
:101F3000892F880F880F890F8C5F0E9489080E9463
:101F4000FF0661E08EE30E94E00390911B04892F5D
:101F5000880F880F890F8C5F0E948908809FB001CD
:101F6000819F700D1124072E000C880B990B0E9485
:101F700077040E94A20760E080E00E944B088FED8A
:101F800092E00E94F20661E080E00E944B0880EF40
:101F900092E00E94F206F7CE0E94A20760E080E085
:101FA0000E944B088FEF92E00E94F20660E086E309
:101FB0000E94E00368EC70E080E090E00E9477040B
:101FC00060E089E30E94E00368EC70E080E090E06C
:101FD0000E94770460E08BE30E94E00368EC70E00D
:101FE00080E090E00E94770460E08EE30E94E003CE
:101FF00068EC70E080E090E00E9477040E94A20705
:1020000060E080E00E944B088CE093E00E94F206C2
:1020100068EE73E080E090E00E947704B4CE0E9406
:10202000A2070E94A20760E080E00E944B088CE1BA
:1020300093E00E94F20661E080E00E944B08F12CE0
:10204000D0E0C0E08091000290910102C817D9074A
:102050006CF48F2D0E9489080E94FF0689E293E0AC
:102060000E94F206219625E0F20EECCF88E293E082
:102070000E94F20631E030931A0410921904109273
:10208000180481CE0E94A20760E080E00E944B0805
:102090008091000290910102059759F48BE293E040
:1020A0000E94F20661E080E00E944B088CE393E01E
:1020B00070CF8AE493E00E94F20610921904109205
:1020C000180451E0509317045ECE809117048823C2
:1020D00009F48FC010921904109218040E94A207EC
:1020E00060E080E00E944B0884E592E00E94F206E6
:1020F00061E080E00E944B0882E692E00E94F206D6
:1021000060910002C62FCC0FCC0FC60F8C2F0E94FF
:102110008A0668EE73E080E090E00E9477046091A8
:102120001304605381E08C0F0E948A0668EE73E00E
:1021300080E090E00E94770460911404605382E094
:102140008C0F0E948A0668EE73E080E090E00E94A7
:10215000770460911504605383E08C0F0E948A0617
:1021600068EE73E080E090E00E94770460911604CE
:10217000605384E08C0F0E948A0668EE73E080E072
:1021800090E00E9477041092170444E050E062E36C
:1021900070E083E194E00E9476110E94A20760E063
:1021A00080E00E944B088AE593E00E94F20661E01D
:1021B00080E00E944B0886E693E00E94F20668EEFB
:1021C00073E080E090E00E9477040E94A20760E044
:1021D00080E00E944B0881E793E00E94F206809124
:1021E00000029091010201969093010280930002F7
:1021F000CACD80911A04882309F4C5CD1092190420
:102200001092180410921A040E94A20760E080E065
:102210000E944B0882E893E00E94F20661E087E0AA
:102220000E944B0880911B0490911C040E9460083E
:102230006CED75E080E090E00E9477040E94A207B8
:1022400060E080E00E944B0883E993E0A2CE909189
:102250001704992309F497CDC0911804D09119045B
:10226000FE01ED5EFB4F7F01808361E08C2F0E94B9
:102270004B0841E0F701608189E895E00E94490739
:102280002196C430D10509F4F8CED0931904C09337
:10229000180479CD61703DCDA1E21A2EAA1BBB1B9B
:1022A000FD010DC0AA1FBB1FEE1FFF1FA217B30722
:1022B000E407F50720F0A21BB30BE40BF50B661F38
:1022C000771F881F991F1A9469F7609570958095FC
:1022D00090959B01AC01BD01CF010895EE0FFF1F4A
:1022E000881F8BBF0790F691E02D1994DC0101C087
:0E22F0006D9341505040E0F70895F894FFCFF1
:1022FE00010017191B1D1F2123253738392F34359F
:10230E00362A3132332D73303D2B00000000AF02E0
:10231E0019024602FC027702550269020000000013
:10232E0058062B0687060106240611060206000033
:10233E0000004E040E04DD03000000005A081902CE
:10234E008706AA0453657474696E672075702E2E05
:10235E002E00506C6561736520776169742E2E2E88
:10236E0000646F6E65210054686520646566617552
:10237E006C742069733A0035203520352035207372
:10238E00656300557365204F4E20746F207761731F
:10239E0068004F72202B20746F20616464206E657C
:1023AE00770050726520576173682E2E2E0044659B
:1023BE0074657267656E74732E2E2E005761746588
:1023CE00722E2E2E00447279696E672E2E2E0057B5
:1023DE00617368696E6720697320646F6E652E0085
:1023EE00557365202D20746F2072657365740052CD
:1023FE006573657474696E672E2E2E005265736553
:10240E007474696E6720646F6E652E0043686F6F1B
:10241E007365206F6E653A003A20004E6F206D6F27
:10242E0072652070726F6772616D730061726520E4
:10243E0061636365707465642100456E7465722016
:10244E0034206469676974733A004E657720707240
:10245E006F6772616D0077617320536176656421D9
:10246E0000557365202F20746F2073656C6563743F
:10247E002E0043757272656E742070726F67726192
:10248E006D3A00557365204F6E20746F207761731F
:04249E00682E0000A4
:00000001FF
