:100000000C9422010C9453010C9453010C94530151
:100010000C9453010C9453010C9453010C94530110
:100020000C9453010C9453010C9453010C94530100
:100030000C9453010C9453010C9453010C945301F0
:100040000C9453010C9453010C9453010C945301E0
:100050000C9453010C9453010C9453010C949D0384
:100060000C9453010C9453010C9453010C945301C0
:100070000C9453010C9453010C9453010C945301B0
:100080000C9453010C9453010C9453010C945301A0
:100090000C9453010C9453010C9453010C94530190
:1000A0000C9453010C9453010C9453010C94530180
:1000B0000C9453010C9453010C9453010C94530170
:1000C0000C9453010C9453010C9453010C94530160
:1000D0000C9453010C9453010C9453010C94530150
:1000E0000C9453010C9427020C9407020C940F02F9
:1000F0000C9423020C94CA040C94F4010C94150281
:100100000C9497030C94D1010C94F7010C94F0011A
:100110000C9453020C94E8010C941D020C941902E7
:100120000C94FD010C9474010C9401020C94EC01EC
:100130000C940B020C94D6010C94520200000A0B92
:1001400002090C0D0E080703040100000000000066
:10015000000000000000000000000000000000009F
:10016000000000000000000012111000000000005C
:10017000000000000000000000000000000000007F
:10018000000000002200250028002B002E00310076
:10019000340002010000050108010B0100002100EC
:1001A000240027002A002D00300033000101000048
:1001B000040107010A0105050505070508080808E7
:1001C000020202020A0A08080404040401010101EF
:1001D00001010101030303030303030304070707EA
:1001E0000C0C0C0C0C0C0C0C02020202060606068F
:1001F000060606060B0B0B0B0B0B0B0B010210205C
:10020000200808102040102040800201020108044C
:1002100002010102040810204080804020100804E0
:100220000201800402018040201008040201080439
:10023000020101020408102040800102040810207D
:100240004080CA0411241FBECFEFD1E2DEBFCDBF74
:1002500000E00CBF12E0A0E0B2E0E4EEF9E000E064
:100260000BBF02C007900D92AE30B107D9F722E064
:10027000AEE0B2E001C01D92A333B207E1F711E096
:10028000C2E2D1E000E006C021970109802FFE0103
:100290000E94E804C132D10780E00807A9F70E9454
:1002A000E7030C94F0040C94000090E0FC01E4508F
:1002B000FE4F24918A549E4FFC018491882399F02B
:1002C00090E0880F991FFC01E456FE4FA591B49170
:1002D000FC01EE57FE4F859194918FB7F894EC9105
:1002E000E22BEC938FBF0895AF92BF92CF92DF9233
:1002F000EF92FF920F931F93CF93DF936C017B01DB
:100300008B01040F151FEB015E01AE18BF08C0176B
:10031000D10759F06991D601ED91FC910190F081DE
:10032000E02DC6011995892B79F7C501DF91CF9191
:100330001F910F91FF90EF90DF90CF90BF90AF9003
:100340000895282F30E0F901E45CFE4F9491F90103
:10035000E450FE4F44912A543E4FF9012491222348
:1003600009F435C0992311F191509231F8F4E92F35
:10037000F0E08827E154FE4F8F4F0C94E804F00121
:10038000F401D101E801EC01D601F701FD01010200
:1003900007020B020F0215021902D6011D022302E9
:1003A0002702809180008F7780938000E22FF0E019
:1003B000EE0FFF1FEE57FE4FA591B4918FB7F89443
:1003C000EC91611148C040954E234C938FBF089526
:1003D000809180008F7DE8CF80918000877FE4CF7F
:1003E00084B58F7784BDE2CF84B58F7DFBCF8091BC
:1003F000B0008F778093B000D9CF8091B0008F7D0F
:10040000F9CF809190008F7780939000CFCF80912B
:1004100090008F7DF9CF80919000877FF5CF8091FC
:10042000A0008F778093A000C1CF8091A0008F7D26
:10043000F9CF8091A000877FF5CF809120018F7741
:1004400080932001B3CF809120018F7DF9CF8091DF
:100450002001877FF5CF4E2BB8CF3FB7F89480911E
:10046000130290911402A0911502B091160226B5C4
:10047000A89B05C02F3F19F00196A11DB11D3FBFDC
:10048000BA2FA92F982F8827BC01CD01620F711DAB
:10049000811D911D42E0660F771F881F991F4A95A5
:1004A000D1F70895089590E080E00895CF93DF9309
:1004B000EC0160E08E810E94A10161E08E810E94CA
:1004C000A10160E08E810E94A1018BE891E001977B
:1004D000F1F7DF91CF910895CF92DF92EF92FF92E3
:1004E0000F931F93CF93DF936C017C0187E0E80E9D
:1004F000F11CD0E0C0E0062F10E0B8010C2E02C0C5
:10050000759567950A94E2F76170F70181917F0113
:100510000E94A1012196C430D10579F7C601DF916F
:10052000CF911F910F91FF90EF90DF90CF900C949F
:100530005602CF92DF92EF92FF920F931F93CF93C9
:10054000DF93EC01F62E642F8C810E94A1018D8136
:100550008F3F19F060E00E94A1010F2D10E08F8500
:1005600084FF25C06E0187E0C80ED11CF12CE12C60
:10057000B8010E2C02C0759567950A94E2F7617078
:10058000F60181916F010E94A101FFEFEF1AFF0AAE
:1005900088E0E816F10461F7CE01DF91CF911F9159
:1005A0000F91FF90EF90DF90CF900C945602B8011E
:1005B00084E0759567958A95E1F7CE010E946C02FB
:1005C0006F2DCE01DF91CF911F910F91FF90EF9092
:1005D000DF90CF900C946C0240E0682F8BE192E0AA
:1005E0000C94990281E00E94EC028BE39FE1019759
:1005F000F1F70895CF93DF93823029F490912A0286
:10060000986090932A0280932E0210922F0280E429
:100610008093300280E18093310280E58093320242
:1006200080911F020E945501809120028F3F11F09E
:100630000E945501809121020E945501CBE1D2E038
:100640009E012B51324080912A0284FD0AC084E031
:1006500090E02196281739073CF48E810E945501BD
:10066000EFCF88E090E0F5CF8BE39DE00197F1F7C5
:1006700060E080911F020E94A10160E08091210250
:100680000E94A101809120028F3F19F060E00E943A
:10069000A10180912A0284FD34C063E08BE192E0E5
:1006A0000E946C02CBE4D6E4CE010197F1F763E03F
:1006B0008BE192E00E946C022197F1F763E08BE1FD
:1006C00092E00E946C0283E592E00197F1F762E00C
:1006D0008BE192E00E946C0280912A0280620E946B
:1006E000EC0284E080932B028CE00E94EC020E94DA
:1006F000F20282E080932C0286E0DF91CF910C948D
:10070000EC0280620E94EC028BE496E40197F1F720
:1007100080912A0280620E94EC0283E592E00197B8
:10072000F1F780912A0280620E94EC02D5CF41E06D
:100730000E94990281E090E008951F920F920FB6F7
:100740000F9211242F933F938F939F93AF93BF9357
:1007500080910F0290911002A0911102B0911202AB
:1007600030910E0223E0230F2D3758F50196A11D7D
:10077000B11D20930E0280930F0290931002A0935C
:100780001102B09312028091130290911402A09171
:100790001502B09116020196A11DB11D809313029E
:1007A00090931402A0931502B0931602BF91AF91DB
:1007B0009F918F913F912F910F900FBE0F901F909F
:1007C000189526E8230F0296A11DB11DD2CF78946B
:1007D00084B5826084BD84B5816084BD85B5826046
:1007E00085BD85B5816085BD80916E0081608093F7
:1007F0006E00109281008091810082608093810060
:10080000809181008160809381008091800081606F
:10081000809380008091B10084608093B1008091CA
:10082000B00081608093B0008091910082608093DD
:10083000910080919100816080939100809190005F
:100840008160809390008091A10082608093A100DC
:100850008091A10081608093A1008091A0008160BF
:100860008093A0008091210182608093210180917A
:10087000210181608093210180912001816080931A
:10088000200180917A00846080937A0080917A00C0
:10089000826080937A0080917A00816080937A00F0
:1008A00080917A00806880937A001092C10082E083
:1008B0000E94FA020E94F202C0E0D0E00E94F2021E
:1008C00080911702E0911902E43008F0E3E0909182
:1008D0002E02E91710F0EFEFE90FF0E0E55EFD4FB3
:1008E0009489890F80680E94EC0241E050E06CE03E
:1008F00072E08BE192E00E94740180911702909166
:100900001802019680319105C9F1909318028093E5
:1009100017028091190290911A020197A1F5109285
:100920001A02109219020E942D024B015C0188EEFE
:10093000C82E83E0D82EE12CF12C0E942D026819DC
:1009400079098A099B09683E734081059105A8F3DE
:1009500021E0C21AD108E108F10888EE880E83E090
:10096000981EA11CB11CC114D104E104F10429F7A3
:10097000209709F4A3CF0E940000A0CF1092180284
:1009800010921702C6CF81E090E090931A028093F4
:100990001902C9CFEBE1F2E01382128284E092E007
:1009A000918380838DE084838FEF85838CE08683C1
:1009B00088E0878389E080878AE081878BE082876F
:1009C0001386148615861686178681E00C94FA0223
:1009D000EE0FFF1F881F8BBF0790F691E02D199433
:0409E000F894FFCFB9
:0E09E4000000000097037401530252022A0023
:00000001FF
