:020000040000FA
:100000000C9444010C9475010C9475010C947501C9
:100010000C9475010C9475010C9475010C94750188
:100020000C9475010C9475010C9475010C94750178
:100030000C9475010C9475010C9475010C94750168
:100040000C9475010C9415090C9475010C947501B0
:100050000C9475010C9475010C9475010C94410875
:100060000C9475010C940B080C94E1070C94750129
:100070000C9475010C9475010C9475010C94750128
:100080000C94E7080C9475010C9475010C9475019F
:100090000C9475010C9475010C9475010C94750108
:1000A0000C9475010C9475010C94B9080C947501AD
:1000B0000C9475010C9475010C9475010C948B08CB
:1000C0000C9475010C9475010C9475010C947501D8
:1000D0000C9475010C9475010C9475010C947501C8
:1000E0000C9475010C9489030C946E030C94A0027B
:1000F0000C9481030C9437020C9462030C94CE038D
:100100000C944E070C949D030C946A030C94C90440
:100110000C94ED020C9468020C949C030C947B03E9
:100120000C9477030C94FF030C9446020C9443093F
:100130000C9493030C9406060C9497030C940506F8
:100140000C9466030C940A020C9485030C945A02D6
:100150000C948F030C945C030C94A1030C94110E6B
:100160000C94710300002100240027002A002D00B8
:100170003000330001010000040107010A01000002
:100180002200250028002B002E003100340002013F
:100190000000050108010B010000200023002600DB
:1001A00029002C002F00320000010000030106018D
:1001B00009010505050507050808080802020202ED
:1001C0000A0A0808040404040101010101010101F3
:1001D0000303030303030303040707070C0C0C0CBE
:1001E0000C0C0C0C020202020606060606060606A7
:1001F0000B0B0B0B0B0B0B0B010210202008081034
:100200002040102040800201020108040201010286
:10021000040810204080804020100804020180045F
:1002200002018040201008040201080402010102BA
:1002300004081020408001020408102040800000C3
:100240000A0B02090C0D0E08070304010000000050
:10025000000000000000000000000000000000009E
:10026000000000000000000000001211100000005B
:10027000000000000000000000000000000000007E
:10028000000000004309110E11241FBECFEFD1E280
:10029000DEBFCDBF00E00CBF12E0A0E0B2E0E2E8BC
:1002A000F1E200E00BBF02C007900D92A439B10744
:1002B000D9F724E0A4E9B2E001C01D92A637B20745
:1002C000E1F711E0C3E4D1E000E006C021970109A5
:1002D000802FFE010E94880EC234D10780E00807FB
:1002E000A9F70E94370A0C94AF100C94000096E016
:1002F000899FD0011124A551BC4F90967C936E9399
:100300005F9791E091969C939197E0915804F091BA
:10031000590490915704992339F0309751F0811185
:1003200008C0809107041994309719F05C968C915D
:10033000FACF0895CF92DF92EF92FF920F931F931F
:1003400096E0899FF0011124E551FC4F11A2278D01
:1003500030A12130310551F178F02230310509F416
:1003600051C02330310509F452C01F910F91FF9005
:10037000EF90DF90CF9008956623B9F361E070E0CD
:100380000E9477012FB7F89480919F029091A0026C
:10039000A091A102B091A2022FBF80934304909339
:1003A0004404A0934504B0934604DFCF9FB7F8946C
:1003B000C0909F02D090A002E090A102F090A20213
:1003C0009FBF009143041091440420914504309153
:1003D0004604C01AD10AE20AF30A009155041091AA
:1003E000560430E020E00C151D052E053F0550F4A5
:1003F00062E070E01F910F91FF90EF90DF90CF903F
:100400000C9477016111B1CF63E070E0F3CF70E03D
:1004100060E0F0CFAF92BF92CF92DF92EF92FF9267
:100420000F931F93CF93DF936C017B018B01040F1C
:10043000151FEB015E01AE18BF08C017D10759F0B8
:100440006991D601ED91FC910190F081E02DC601FA
:100450001995892B79F7C501DF91CF911F910F91E4
:10046000FF90EF90DF90CF90BF90AF900895FC0188
:10047000538D448D252F30E0842F90E0821B930B09
:10048000541710F0CF96089501970895FC01918DAF
:10049000828D981761F0A28DAE0FBF2FB11D5D96B2
:1004A0008C91928D9F5F9F73928F90E008958FEF54
:1004B0009FEF0895FC01918D828D981731F0828D08
:1004C000E80FF11D858D90E008958FEF9FEF08955F
:1004D000FC01918D228D892F90E0805C9F4F821BC3
:1004E00091098F739927089583E393E00E9468022E
:1004F00021E0892B09F420E0822F0895FC01A48DCE
:10050000A80FB92FB11DA35ABF4F2C91848D90E035
:1005100001968F739927848FA689B7892C93A08918
:10052000B1898C91837080648C93938D848D9813A2
:1005300006C00288F389E02D80818F7D8083089535
:10054000EF92FF920F931F93CF93DF93EC0181E023
:10055000888F9B8D8C8D98131AC0E889F9898081CA
:1005600085FF15C09FB7F894EE89FF896083E889FD
:10057000F98980818370806480839FBF81E090E0EF
:10058000DF91CF911F910F91FF90EF900895F62E7C
:100590000B8D10E00F5F1F4F0F731127E02E8C8D16
:1005A0008E110CC00FB607FCFACFE889F98980815B
:1005B00085FFF5CFCE010E947E02F1CFEB8DEC0FCF
:1005C000FD2FF11DE35AFF4FF0829FB7F8940B8F78
:1005D000EA89FB8980818062CFCFCF93DF93EC01E2
:1005E000888D8823B9F0AA89BB89E889F9898C911B
:1005F00085FD03C0808186FD0DC00FB607FCF7CFD7
:100600008C9185FFF2CF808185FFEDCFCE010E94D6
:100610007E02E9CFDF91CF91089580E090E0892BB1
:1006200029F00E94740281110E94000080E090E095
:10063000892B49F080E090E0892B29F00E9400008E
:1006400081110E94000080E090E0892B49F080E059
:1006500090E0892B29F00E94000081110E94000087
:1006600080E090E0892B49F080E090E0892B29F030
:100670000E94000081110C94000008958150823185
:1006800008F05AC0E82FF0E08827E65BFC4F8F4F58
:100690000C94880E6A036E035C03620366039C037A
:1006A000710377037B038103850389038F0393031E
:1006B0009C0397039D03A103809180008F77809313
:1006C00080000895809180008F7DF9CF8091800017
:1006D000877FF5CF84B58F7784BD089584B58F7DEE
:1006E000FBCF8091B0008F778093B0000895809108
:1006F000B0008F7DF9CF809190008F77809390002C
:100700000895809190008F7DF9CF80919000877F30
:10071000F5CF8091A0008F778093A00008958091FD
:10072000A0008F7DF9CF8091A000877FF5CF8091C9
:1007300020018F77809320010895809120018F7D83
:10074000F9CF80912001877FF5CFCF93DF93282FBA
:1007500030E0F901E25CFD4F8491F901E850FE4F71
:10076000D491F901EE54FE4FC491CC23A1F0811134
:100770000E943E03EC2FF0E0EE0FFF1FE856FE4F05
:10078000A591B491EC91ED2381E090E009F480E033
:10079000DF91CF91089580E090E0FACF862F0C94FE
:1007A000A5031F93CF93DF93282F30E0F901E25C7C
:1007B000FD4F8491F901E850FE4FD491F901EE54B8
:1007C000FE4FC491CC23A9F0162F81110E943E0345
:1007D000EC2FF0E0EE0FFF1FE258FE4FA591B49111
:1007E0008FB7F894EC91111108C0D095DE23DC93FB
:1007F0008FBFDF91CF911F910895DE2BF8CF862F09
:10080000642F0C94D103CF93DF9390E0FC01E85068
:10081000FE4F24918E549E4FFC0184918823C9F091
:1008200090E0880F991FFC01EC59FE4FA591B491FF
:10083000FC01E258FE4FC591D49161110DC09FB7E4
:10084000F8948C91209582238C9388812823288387
:100850009FBFDF91CF910895623051F49FB7F89414
:100860003C91822F809583238C93E8812E2BEFCFB0
:100870008FB7F894EC912E2B2C938FBFEACF1F9358
:10088000CF93DF93EC01162F8881803308F050C09E
:1008900061E0812F0E9403048881282F30E0F90154
:1008A000EE0FFF1FE20FF31FED55FD4F1F73608129
:1008B000607C612B60839EE8998394E69A832CE0A8
:1008C000622F0E947C0E829FB001112430E020E054
:1008D000AB01420F531FFA01EE0FFF1FE40FF51F8C
:1008E000ED55FD4F908196FD16C02F5F3F4F2C3088
:1008F000310571F7813009F51092800082E0809314
:1009000081001092850010928400B19A80916F004E
:10091000826080936F00E8818E2F90E0FC01EE0FE3
:10092000FF1FE80FF91FED55FD4F80818064808324
:100930008881DF91CF911F910895823061F41092E8
:10094000900080939100109295001092940088BBC3
:1009500080937100E0CF833069F41092A00082E0B0
:100960008093A1001092A5001092A40089BB8093EF
:100970007200D1CF8111CFCF1092200182E08093FD
:10098000210110922501109224018ABB80937300EB
:10099000C2CF862F642F0C9403048F929F92AF9244
:1009A000BF92FF920F931F93CF93DF93FC01F080D0
:1009B0008FE28F1508F44AC0828108E512E0081B17
:1009C000110987FD1395000F111F000F111F818161
:1009D000C8E8D0E0C81BD10987FDD395CC0FDD1F37
:1009E000CC0FDD1F4E010D2E000CAA08BB0898018C
:1009F000012E000C440B550B281939094A095B09D3
:100A0000DB010E94430E24EB30E040E050E00E9406
:100A1000190E820E931EA41EB51E8C169D062CF078
:100A2000E801801691060CF4E4012297CC0FDD1F3B
:100A30002FB7F8948F2D90E0FC01EE0FFF1FE80F09
:100A4000F91FED55FD4FD283C1832FBFDF91CF91A9
:100A50001F910F91FF90BF90AF909F908F9008953E
:100A6000FC0190919802903398F481E0890F809373
:100A700098029083892F90E0FC01EE0FFF1FE80F92
:100A8000F91FED55FD4F88EB9BE09283818308951C
:100A90008FEF80830895AF92BF92CF92DF92EF9253
:100AA000FF920F931F93CF93DF936B017A01EC01B9
:100AB000CC56DD4F28813CE0389F8001399F100DD6
:100AC0001124A0909802B12C27FF1FC0FB011182B6
:100AD000108288818F5F888388819801280F311D5B
:100AE00087FD3A95F6012A153B051CF488818C3068
:100AF000C4F180819181049680349C4908F473C0CC
:100B0000F60180819181049670C088819801280F38
:100B1000311D87FD3A952A153B05DCF68881A80131
:100B2000480F511D87FD5A95FA01EE0FFF1FE40F84
:100B3000F51FED55FD4F808186FFCBCF8881F801F1
:100B4000E80FF11D87FDFA95CF01EE0FFF1FE80FAB
:100B5000F91FED55FD4F808160E08F730E94D10336
:100B6000B8CF808191812881A801420F511D27FDB6
:100B70005A959A01FA01EE0FFF1FE20FF31FED5590
:100B8000FD4F21813281820F931FF7019183808372
:100B900088819801280F311D87FD3A95F901EE0FE4
:100BA000FF1FE20FF31FED55FD4F808186FF22C02E
:100BB0008881080F111D87FD1A95F801EE0FFF1FA0
:100BC000E00FF11FED55FD4F808161E08F73DF91E4
:100BD000CF911F910F91FF90EF90DF90CF90BF903A
:100BE000AF900C94D10380E49CE9F701918380835A
:100BF0008FEF8883DF91CF911F910F91FF90EF903E
:100C0000DF90CF90BF90AF900895089590E080E07E
:100C10000895CF93DF93EC0160E08E810E94D103B1
:100C200061E08E810E94D10360E08E810E94D10339
:100C30008BE891E00197F1F7DF91CF910895CF9282
:100C4000DF92EF92FF920F931F93CF93DF936C018C
:100C50007C0187E0E80EF11CD0E0C0E0062F10E038
:100C6000B8010C2E02C0759567950A94E2F7617081
:100C7000F70181917F010E94D1032196C430D105F3
:100C800079F7C601DF91CF911F910F91FF90EF90FF
:100C9000DF90CF900C940906CF92DF92EF92FF92F3
:100CA0000F931F93CF93DF93EC01F62E642F8C816B
:100CB0000E94D1038D818F3F19F060E00E94D10323
:100CC0000F2D10E08F8584FF25C06E0187E0C80ED0
:100CD000D11CF12CE12CB8010E2C02C07595679542
:100CE0000A94E2F76170F60181916F010E94D103CD
:100CF000FFEFEF1AFF0A88E0E816F10461F7CE0172
:100D0000DF91CF911F910F91FF90EF90DF90CF90E7
:100D10000C940906B80184E0759567958A95E1F70A
:100D2000CE010E941F066F2DCE01DF91CF911F9142
:100D30000F91FF90EF90DF90CF900C941F0640E052
:100D4000682F8AE594E00C944C0681E00E949F068F
:100D50008BE39FE10197F1F70895CF93DF93823002
:100D600029F49091690498609093690480936D04CC
:100D700010926E0480E480936F0480E1809370048D
:100D800080E58093710461E080915E040E94030419
:100D900080915F048F3F19F061E00E94030461E0DD
:100DA000809160040E940304CAE5D4E09E012A55A4
:100DB00034408091690484FD0BC084E090E021966A
:100DC0002817390744F461E08E810E940304EECFB6
:100DD00088E090E0F4CF8BE39DE00197F1F760E0CD
:100DE00080915E040E94D10360E0809160040E94C3
:100DF000D10380915F048F3F19F060E00E94D1031E
:100E00008091690484FD34C063E08AE594E00E9427
:100E10001F06CBE4D6E4CE010197F1F763E08AE543
:100E200094E00E941F062197F1F763E08AE594E0C1
:100E30000E941F0683E592E00197F1F762E08AE5E0
:100E400094E00E941F068091690480620E949F06C0
:100E500084E080936A048CE00E949F060E94A506AD
:100E600082E080936B0486E0DF91CF910C949F0623
:100E700080620E949F068BE496E40197F1F78091CF
:100E8000690480620E949F0683E592E00197F1F772
:100E90008091690480620E949F06D5CF41E00E9444
:100EA0004C0681E090E00895FC0101900020E9F7F4
:100EB0003197AF01481B590BBC018AE594E00C94B3
:100EC0000A02FC0180819181009711F00C942C0F93
:100ED0000895FC0124813581232B31F421E0FB01AD
:100EE000672B49F4822F08958081918161157105E6
:100EF00039F421E0FC0180818823A1F320E0F2CFC6
:100F00000E949F1021E0892B69F3F8CF0F931F9364
:100F1000CF93DF93EC0188819981009759F02A8162
:100F20003B812617370730F081E0DF91CF911F9189
:100F30000F9108958B016F5F7F4F0E94B50F00974F
:100F400059F0998388831B830A832C813D81232B4D
:100F500059F7FC011082E8CF80E0E7CFEF92FF92D3
:100F60000F931F93CF93DF93EC017B018A01BA01AA
:100F70000E94860728813981811114C0211531050D
:100F800019F0C9010E942C0F198218821D821C823F
:100F90001B821A82CE01DF91CF911F910F91FF909A
:100FA000EF9008951D830C83B701C9010E94A8101A
:100FB000F1CF50E040E060E772E080ED93E00C9408
:100FC000AE071F920F920FB60F9211240BB60F921D
:100FD0002F933F934F935F936F937F938F939F9341
:100FE000AF93BF93EF93FF9383E393E00E947E025E
:100FF000FF91EF91BF91AF919F918F917F916F91F1
:101000005F914F913F912F910F900BBE0F900FBEAC
:101010000F901F9018951F920F920FB60F921124E8
:101020000BB60F922F938F939F93EF93FF93E091C3
:101030004303F09144038081E0914903F0914A0316
:1010400082FD1DC0908180914C038F5F8F73209132
:101050004D03821741F0E0914C03F0E0ED5CFC4F52
:10106000958F80934C03FF91EF919F918F912F91DA
:101070000F900BBE0F900FBE0F901F9018958081A0
:10108000F2CF1F920F920FB60F9211242F933F931E
:101090008F939F93AF93BF9380919F029091A002F3
:1010A000A091A102B091A20230919D0223E0230FF2
:1010B0002D3758F50196A11DB11D20939D028093F7
:1010C0009F029093A002A093A102B093A2028091EC
:1010D000990290919A02A0919B02B0919C02019674
:1010E000A11DB11D8093990290939A02A0939B0237
:1010F000B0939C02BF91AF919F918F913F912F919F
:101100000F900FBE0F901F90189526E8230F0296A0
:10111000A11DB11DD2CF1F920F920FB60F921124B5
:101120000BB60F922F933F934F935F936F937F93E1
:101130008F939F93AF93BF93EF93FF9348E251E058
:1011400064E271E090E080E00E944B05FF91EF9136
:10115000BF91AF919F918F917F916F915F914F91CF
:101160003F912F910F900BBE0F900FBE0F901F90CD
:1011700018951F920F920FB60F9211240BB60F9273
:101180002F933F934F935F936F937F938F939F938F
:10119000AF93BF93EF93FF9348EA50E064EA70E0A7
:1011A00083E090E00E944B05FF91EF91BF91AF91DA
:1011B0009F918F917F916F915F914F913F912F916F
:1011C0000F900BBE0F900FBE0F901F9018951F929F
:1011D0000F920FB60F9211240BB60F922F933F93DD
:1011E0004F935F936F937F938F939F93AF93BF932F
:1011F000EF93FF9348E950E064E970E082E090E00B
:101200000E944B05FF91EF91BF91AF919F918F91FC
:101210007F916F915F914F913F912F910F900BBEF6
:101220000F900FBE0F901F9018951F920F920FB640
:101230000F9211240BB60F922F933F934F935F930E
:101240006F937F938F939F93AF93BF93EF93FF938E
:1012500048E850E064E870E081E090E00E944B05CF
:10126000FF91EF91BF91AF919F918F917F916F917E
:101270005F914F913F912F910F900BBE0F900FBE3A
:101280000F901F901895109236031092350388EE38
:1012900093E0A0E0B0E08093370390933803A093ED
:1012A0003903B0933A0382E292E09093340380933F
:1012B000330385EC90E09093400380933F0384ECEC
:1012C00090E0909342038093410380EC90E09093F0
:1012D00044038093430381EC90E090934603809312
:1012E000450382EC90E0909348038093470386EC9B
:1012F00090E090934A038093490310924C0310921C
:101300004D0310924E0310924F0310925D04109201
:101310005C048EE392E090935B0480935A048DE02A
:1013200080935E048FEF80935F048CE08093600471
:1013300088E08093610489E0809362048AE080936E
:1013400063048BE080936404109265041092660439
:1013500010926704109268041092690481E00E9460
:10136000AD061092ED031092F1031092F00310926B
:10137000F20384E392E09093EC038093EB03E7E0C5
:10138000F4E01082148213821582369684E0E334EE
:10139000F807B9F784E092E090934E0480934D04EF
:1013A00080E092E09093500480934F0484E0809317
:1013B00051048093520488E092E090934C0480930F
:1013C0004B048AE090E0909354048093530484EF9C
:1013D00091E0909356048093550410925904109212
:1013E0005804109247041092480410924904109235
:1013F0004A041092570488EE93E00E94300585EE6F
:1014000093E00E94300582EE93E00E9430058FED5C
:1014100093E00E9430058CED93E00E94300510921D
:10142000D7031092D6031092D9031092D8031092CA
:10143000DB031092DA0347E050E066E472E086EDE9
:1014400093E00E94AE071092D1031092D003109245
:10145000D3031092D2031092D5031092D40350E01C
:1014600040E060E772E080ED93E00C94AE07CF932C
:10147000DF9300D000D0CDB7DEB7789484B582601A
:1014800084BD84B5816084BD85B5826085BD85B528
:10149000816085BD80916E00816080936E001092A6
:1014A0008100809181008260809381008091810021
:1014B00081608093810080918000816080938000B2
:1014C0008091B10084608093B1008091B000816010
:1014D0008093B00080919100826080939100809110
:1014E0009100816080939100809190008160809351
:1014F00090008091A10082608093A1008091A10062
:1015000081608093A1008091A00081608093A00001
:10151000809121018260809321018091210181606D
:10152000809321018091200181608093200180912E
:101530007A00846080937A0080917A008260809340
:101540007A0080917A00816080937A0080917A009D
:10155000806880937A001092C10061E081E30E946C
:10156000030461E082E30E94030461E083E30E94DC
:10157000030461E084E30E94030461E085E30E94C8
:10158000030461E081E30E94D10361E082E30E94F1
:10159000D10361E083E30E94D10361E084E30E9410
:1015A000D10361E085E30E94D10382E00E94AD0691
:1015B0000E94A506E0914303F091440382E08083FA
:1015C000E0913F03F09140031082E0914103F091DC
:1015D00042038FEC808310924B03E0914703F0911C
:1015E000480386E08083E0914503F09146038081C3
:1015F00080618083E0914503F0914603808188609B
:101600008083E0914503F091460380818068808368
:10161000E0914503F091460380818F7D808363E0F4
:1016200070E088EE93E00E943F0464E070E085EE95
:1016300093E00E943F0465E070E082EE93E00E9438
:101640003F0466E070E08FED93E00E943F0467E0A6
:1016500070E08CED93E00E943F04412C512C32014C
:101660004394AA24AA94BA2C51E0509357048FB7FC
:10167000F89440919F025091A0026091A102709154
:10168000A2028FBF8091470490914804A091490421
:10169000B0914A04481B590B6A0B7B0B8091530491
:1016A00090915404B0E0A0E084179507A607B7070F
:1016B000D8F610E080915104181760F4E0914D04C1
:1016C000F0914E04E10FF11D62E080810E9403045D
:1016D0001F5FF0CF312C80915204381608F061C0A2
:1016E000E32CF12CE0914F04F0915004EE0DFF1D1E
:1016F00061E080810E940304E0914F04F091500466
:10170000EE0DFF1D60E080810E94D103D301C20174
:10171000032C04C0880F991FAA1FBB1F0A94D2F77D
:101720004C016C01C094D094212C80915104281656
:1017300008F5022D10E0E0914D04F0914E04E00F09
:10174000F11F80810E94A5030C5F1F4F000F111F26
:10175000F801E551FC4F892B41F480819181882962
:101760009929918380832394E0CF808191818C217A
:101770009D21F7CFE0914F04F0915004EE0DFF1D35
:1017800061E080810E94D10380914F0490915004C8
:10179000E80EF91E60E0F70180810E940304339493
:1017A0009ACF0BEE13E0F801878D90A1892B21F4DD
:1017B000148EB68EA58E11A2369654E0E732F50748
:1017C00099F7D12C80915104D81608F053C0C12C40
:1017D000ED2CF12CEE0CFF1CC7018D509C4F7C01B1
:1017E00020915204C21608F043C0F7016081718154
:1017F0000C2C02C0769567950A94E2F7D29E900170
:1018000011242C0D311DEBEEF3E080E0458D568D5B
:101810002417350709F4AAC18F5F36968A30B1F7CD
:1018200060FF24C0EBEEF3E090E080E0448D4111D6
:1018300018C0E0914B04F0914C04E20FF31F40817B
:1018400056E0589FF001599FF00D1124E551FC4FCF
:10185000448F368F258F10A2178E61E00E949A0167
:1018600005C0019636968A30910501F7C394B8CF2A
:10187000D394A8CF80E0F80191A19111892F0A5F3C
:101880001F4FF4E007321F07B1F79FB7F89440915C
:101890009F025091A0026091A1027091A2029FBF8D
:1018A00040934704509348046093490470934A045A
:1018B000882309F4D9CE80910C04882309F4D4CE6E
:1018C00080910A0490910B04019709F0CDCE1091FC
:1018D0000704112309F4C8CE1A3209F042C06AE2A3
:1018E00070E080ED93E00E94690781113CC0409157
:1018F000D4035091D5032091DA033091DB034217D2
:101900005307D1F48091D0039091D1036091D60315
:101910007091D703009709F42BC16115710539F453
:10192000452B09F433C1FC01808190E02CC10E9459
:101930009F1029C1E1E030C1E0916D04E23078F4FC
:10194000E150F0E0E65AFB4F848980680E949F06D0
:101950008FE592E00E9454070E94D9075FC1E1E041
:10196000F0CF1F3249F480919E02811105C00E9480
:10197000A50681E792E0EECF6AE270E080ED93E0A9
:101980000E946907882311F01A32F1F11F3209F021
:10199000B7C01A8219821C821B821E821D8260912E
:1019A000D0037091D1036115710541F04091D403CA
:1019B0005091D503CE0101960E94AE0765E872E012
:1019C000CE0101960E946907882309F454C060E0A3
:1019D00081E30E94D10364EB70E088EE93E00E9403
:1019E000CD04CE0101960E9461070E94A506409198
:1019F000D4035091D5036091D0037091D1038AE54F
:101A000094E00E940A02A8CF61E081E30E94D10322
:101A100061E082E30E94D10361E083E30E94D1038D
:101A200061E084E30E94D10361E085E30E94D10379
:101A30006AE570E088EE93E00E94CD046AE570E00C
:101A400085EE93E00E94CD046AE570E082EE93E0BB
:101A50000E94CD046AE570E08FED93E00E94CD0412
:101A60006AE570E08CED93E00E94CD040E94A5062B
:101A70008CE792E06FCF68E872E0CE0101960E9499
:101A80006907882349F060E082E30E94D10364EB98
:101A900070E085EE93E0A3CF6BE872E0CE01019693
:101AA0000E946907882349F060E083E30E94D10324
:101AB00064EB70E082EE93E092CF6EE872E0CE01CC
:101AC00001960E946907882349F060E084E30E9440
:101AD000D10364EB70E08FED93E081CF61E972E0B8
:101AE000CE0101960E946907882309F47ACF60E04D
:101AF00085E30E94D10364EB70E08CED93E06FCF3F
:101B0000133219F40E94A50627CF19831A82009177
:101B1000D4031091D5030F5F1F4FB80180ED93E000
:101B20000E948607882399F02091D0033091D10339
:101B30008091D4039091D503BE016F5F7F4F820FD8
:101B4000931F0E94A8101093D5030093D4030E9402
:101B5000A5064091D4035091D5036091D0037091B4
:101B6000D1038AE594E00E940A0258C0617076CEE3
:101B70006115710559F0232B49F0FB01808190E03C
:101B8000919581959109892B09F0D6CEE0916D044C
:101B9000E23008F0CFCEE150F0E0E65AFB4F848906
:101BA00080680E949F068EE492E00E9454070E9483
:101BB000D907F1E0F0939E0260E081E30E94D10337
:101BC00060E082E30E94D10360E083E30E94D103DE
:101BD00060E084E30E94D10360E085E30E94D103CA
:101BE00070E060E088EE93E00E94CD0470E060E079
:101BF00085EE93E00E94CD0470E060E082EE93E019
:101C00000E94CD0470E060E08FED93E00E94CD046F
:101C100070E060E08CED93E00E94CD040E940D0323
:101C200023CD80ED93E00E94610786ED93E00C9454
:101C30006107052E97FB1EF400940E94300E57FD9D
:101C400007D00E944B0E07FC03D04EF40C94300ECC
:101C500050954095309521953F4F4F4F5F4F0895D8
:101C600090958095709561957F4F8F4F9F4F089508
:101C70000E946D0EA59F900DB49F900DA49F800DA6
:101C8000911D11240895B7FF0C94380E0E94380E50
:101C9000821B930B0895A1E21A2EAA1BBB1BFD0108
:101CA0000DC0AA1FBB1FEE1FFF1FA217B307E4073B
:101CB000F50720F0A21BB30BE40BF50B661F771F93
:101CC000881F991F1A9469F7609570958095909573
:101CD0009B01AC01BD01CF010895A29FB001B39F4C
:101CE000C001A39F700D811D1124911DB29F700D25
:101CF000811D1124911D0895991B79E004C0991F3D
:101D0000961708F0961B881F7A95C9F78095089555
:101D1000EE0FFF1F881F8BBF0790F691E02D1994DF
:101D20000F931F93CF93DF938230910510F482E0DD
:101D300090E0E0917404F091750430E020E0B0E0B0
:101D4000A0E0309799F42115310509F44AC0281B09
:101D5000390B24303105D8F58A819B8161157105D5
:101D600089F1FB0193838283FE0111C0408151817F
:101D70000281138148175907E0F04817590799F471
:101D8000109761F012960C93129713961C9332964B
:101D9000CF01DF91CF911F910F91089500937404AB
:101DA00010937504F4CF2115310551F042175307F4
:101DB00038F0A901DB019A01BD01DF01F801C1CFB3
:101DC000EF01F9CF9093750480937404CDCFFE0199
:101DD000E20FF31F819391932250310939832883B5
:101DE000D7CF2091720430917304232B41F42091BA
:101DF0001A0230911B0230937304209372042091D5
:101E00001802309119022115310541F42DB73EB762
:101E100040911C0250911D02241B350BE09172046D
:101E2000F0917304E217F307A0F42E1B3F0B281761
:101E3000390778F0AC014E5F5F4F2417350748F043
:101E40004E0F5F1F509373044093720481939193DC
:101E50009FCFF0E0E0E09CCFCF93DF930097E9F0D5
:101E6000FC01329713821282A0917404B091750420
:101E7000ED0130E020E01097A1F420813181820F44
:101E8000931F20917204309173042817390709F0C9
:101E900061C0F0937304E0937204DF91CF910895D1
:101EA000EA01CE17DF07E8F54A815B819E01411503
:101EB0005105B1F7E901FB83EA8349915991C40FB8
:101EC000D51FEC17FD0761F4808191810296840F84
:101ED000951FE90199838883828193819B838A83FB
:101EE000F0E0E0E012968D919C9113970097B9F580
:101EF0002D913C911197CD010296820F931F209155
:101F00007204309173042817390739F6309751F568
:101F10001092750410927404B0937304A093720429
:101F2000BCCFD383C28340815181840F951FC817D2
:101F3000D90761F44E5F5F4F88819981480F591F1F
:101F4000518340838A819B8193838283211531054C
:101F500009F0B0CFF0937504E09374049ECFFD01B7
:101F6000DC01C0CF13821282D7CF4F925F926F9263
:101F70007F928F929F92AF92BF92CF92DF92EF9219
:101F8000FF920F931F93CF93DF938C01009799F4E7
:101F9000CB01DF91CF911F910F91FF90EF90DF90D8
:101FA000CF90BF90AF909F908F907F906F905F90F9
:101FB0004F900C94900EFC01E60FF71F9C012250ED
:101FC0003109E217F30708F4AEC0D901CD91DC91D5
:101FD0001197C617D70720F1C530D10578F0CE018B
:101FE00004978617970750F0C61BD70B2297C1930B
:101FF000D1936D937C93CF010E942C0FC801DF9188
:10200000CF911F910F91FF90EF90DF90CF90BF90F5
:10201000AF909F908F907F906F905F904F900895BA
:102020005B01AC1ABD0A4C018C0E9D1EA09174047C
:10203000B0917504512C412CF12CE12C109731F505
:1020400080917204909173048815990509F05CC021
:102050004616570608F058C0809118029091190250
:10206000009741F48DB79EB740911C0250911D021C
:10207000841B950BE817F90708F055C0F09373041B
:10208000E0937204F90171836083B8CF8D919C91C4
:10209000119712966C90129713967C901397A8152F
:1020A000B90559F56C0142E0C40ED11CCA14DB0419
:1020B00020F1AC014A195B09DA011296159780F0FC
:1020C0006282738251834083D9016D937C93E114C2
:1020D000F10471F0D7011396FC93EE9312978ECF13
:1020E00022968C0F9D1FF90191838083F301EFCF1E
:1020F000F0937504E093740481CF4816590608F4F0
:102100002C017D01D3019ACFCB010E94900E7C015E
:10211000009749F0AE01B8010E949610C8010E94D4
:102120002C0F87016BCF10E000E068CFFB01DC01D2
:1021300002C001900D9241505040D8F70895FB0124
:10214000DC018D91019080190110D9F3990B08954C
:10215000FB01DC0101900D920020E1F7089511E0F0
:10216000C3E4D1E000E006C0802FFE010E94880E8B
:102170002196011DC434D10780E00807A9F7F8941F
:10218000FFCF1A1B1C1D161718193738392F343575
:10219000362A3132332D23303D2B00007604800067
:1021A00000000000A0020A023702ED0268024602A7
:1021B0005A0200000000C904FF03CE030000000023
:1021C0004E070A020606050631323334353637002B
:1021D000636F72726563742070617373776F72647A
:1021E000002077726F6E672070617373776F72640F
:1021F000212000656E746572207061737300616CDC
:102200006C207365742100303100303200303300AF
:06221000303400303500FF
:020000040003F7
:10E000000D9489F10D94B2F10D94B2F10D94B2F129
:10E010000D94B2F10D94B2F10D94B2F10D94B2F1F0
:10E020000D94B2F10D94B2F10D94B2F10D94B2F1E0
:10E030000D94B2F10D94B2F10D94B2F10D94B2F1D0
:10E040000D94B2F10D94B2F10D94B2F10D94B2F1C0
:10E050000D94B2F10D94B2F10D94B2F10D94B2F1B0
:10E060000D94B2F10D94B2F10D94B2F10D94B2F1A0
:10E070000D94B2F10D94B2F10D94B2F10D94B2F190
:10E080000D94B2F10D94B2F10D94B2F10D94B2F180
:10E090000D94B2F10D94B2F10D94B2F10D94B2F170
:10E0A0000D94B2F10D94B2F10D94B2F10D94B2F160
:10E0B0000D94B2F10D94B2F10D94B2F10D94B2F150
:10E0C0000D94B2F10D94B2F10D94B2F10D94B2F140
:10E0D0000D94B2F10D94B2F10D94B2F10D94B2F130
:10E0E0000D94B2F141546D656761323536300041AF
:10E0F000726475696E6F206578706C6F72657220DE
:10E1000073746B3530305632206279204D4C530099
:10E11000426F6F746C6F616465723E004875683F52
:10E1200000436F6D70696C6564206F6E203D200048
:10E130004350552054797065202020203D20005FF9
:10E140005F4156525F415243485F5F3D2000415658
:10E1500052204C696243205665723D20004743437C
:10E160002056657273696F6E203D20004350552024
:10E1700049442020202020203D20004C6F7720663D
:10E18000757365202020203D20004869676820665F
:10E190007573652020203D200045787420667573D6
:10E1A00065202020203D20004C6F636B2066757336
:10E1B000652020203D20004D617220203720323024
:10E1C000313300312E362E3800342E332E350056A2
:10E1D00023202020414444522020206F7020636F70
:10E1E00064652020202020696E73747275637469E1
:10E1F0006F6E2061646472202020496E74657272B3
:10E20000757074006E6F20766563746F7200726A49
:10E210006D702020006A6D70200057686174207056
:10E220006F72743A00506F7274206E6F7420737541
:10E2300070706F72746564004D7573742062652030
:10E2400061206C6574746572002000577269747483
:10E25000696E672045450052656164696E672045B7
:10E26000450045452065727220636E743D00504F35
:10E27000525400303D5A65726F2061646472003FF1
:10E280003D43505520737461747300403D454550C3
:10E29000524F4D207465737400423D426C696E6B41
:10E2A000204C454400453D44756D70204545505215
:10E2B0004F4D00463D44756D7020464C415348001B
:10E2C000483D48656C70004C3D4C69737420492F83
:10E2D0004F20506F72747300513D51756974005234
:10E2E0003D44756D702052414D00563D73686F7707
:10E2F00020696E7465727275707420566563746FF0
:10E30000727300593D506F727420626C696E6B00BD
:10E310002A0011241FBECFEFD1E2DEBFCDBF01E046
:10E320000CBF12E0A0E0B2E0EEE1FDEF03E00BBFB6
:10E3300002C007900D92A030B107D9F712E0A0E01B
:10E34000B2E001C01D92AE30B107E1F70F9460F367
:10E350000D948DFE01E20EBF0FEF0DBF11241FBE05
:10E360000D9460F30D9400F020E030E040ED57E0B4
:10E3700005C0FA013197F1F72F5F3F4F2817390792
:10E38000C0F308959C01260F311DC901A0E0B0E043
:10E390002F5F3F4FABBFFC018791882361F08093D3
:10E3A000C6008091C00086FFFCCF8091C0008064D1
:10E3B0008093C000EACF08958DE08093C6008091DD
:10E3C000C00086FFFCCF8091C00080648093C000B5
:10E3D0008AE08093C6008091C00086FFFCCF8091C8
:10E3E000C00080648093C00008950F94C2F10F9420
:10E3F000DCF10895FC019081992359F09093C600B7
:10E400008091C00086FFFCCF8091C0008064809323
:10E41000C0003196992379F70895282F982F929567
:10E420009F70892F805D8A3308F0895F8093C600D2
:10E430008091C00086FFFCCF8091C00080648093F3
:10E44000C000822F8F70982F905D9A3308F0995FEB
:10E450009093C6008091C00086FFFCCF8091C000E1
:10E4600080648093C00008959C01FB01853691056E
:10E470001CF46330710594F0C90164E670E00F94F8
:10E480002EFE605D7F4F6093C6008091C00086FFC6
:10E49000FCCF8091C00080648093C0002B30310598
:10E4A00014F43297B4F0C90164E670E00F942EFEC4
:10E4B0006AE070E00F942EFE605D7F4F6093C600AF
:10E4C0008091C00086FFFCCF8091C0008064809363
:10E4D000C000C9016AE070E00F942EFEC0968093E0
:10E4E000C6008091C00086FFFCCF8091C000806490
:10E4F0008093C00008951F93182F8EE692EE60E07F
:10E500000F94C2F11093C6008091C00086FFFCCF2B
:10E510008091C00080648093C0000F94DCF11F9153
:10E5200008952F923F924F925F926F927F928F92B7
:10E530009F92AF92BF92CF92DF92EF92FF920F9392
:10E540001F93DF93CF93CDB7DEB762970FB6F894E2
:10E55000DEBF0FBECDBF382E622ECA01DB015C01CB
:10E560006D01772420E2222E2E010894411C511CBB
:10E570008BC081E0A81680E0B80681E0C80680E084
:10E58000D80628F0C601AA27BB270F940DF2BB2797
:10E59000AD2D9C2D8B2D0F940DF28A2D0F940DF225
:10E5A0002092C6008091C00086FFFCCF8091C00001
:10E5B00080648093C0009DE29093C6008091C0006B
:10E5C00086FFFCCF8091C00080648093C0002092C1
:10E5D000C6008091C00086FFFCCF8091C00080649F
:10E5E0008093C00019828601750188249924A1E0D6
:10E5F0003A1651F03A1620F0B2E03B1661F409C029
:10E600000BBFF701779007C0C7010F9477FE782EF4
:10E6100002C0F7017080872D0F940DF22092C60082
:10E620008091C00086FFFCCF8091C0008064809301
:10E63000C000872D8052F401EF70F0708F3520F408
:10E64000E40DF51D708204C0E40DF51D8EE280839B
:10E650000894E11CF11C011D111D0894811C911CE2
:10E6600090E18916910409F0C2CF80E190E0A0E02A
:10E67000B0E0A80EB91ECA1EDB1E198AC2010F9493
:10E68000FAF10F94DCF16A94662009F072CF629679
:10E690000FB6F894DEBF0FBECDBFCF91DF911F91B3
:10E6A0000F91FF90EF90DF90CF90BF90AF909F9031
:10E6B0008F907F906F905F904F903F902F90089534
:10E6C0002F923F924F925F926F927F928F929F9282
:10E6D000AF92BF92CF92DF92EF92FF920F931F9370
:10E6E000DF93CF93CDB7DEB7CD53D1400FB6F894BB
:10E6F000DEBF0FBECDBF01E20EBF0FEF0DBF94B75F
:10E70000F894A89514BE80916000886180936000A1
:10E7100010926000789493FF05C0E0910002F091A0
:10E7200001021995279A2F9A8091C00082608093E8
:10E73000C00080E18093C40088E18093C1000000A4
:10E74000EE24FF24870144E0A42EB12CCC24DD2448
:10E7500024C0C5010197F1F70894E11CF11C011DCB
:10E76000111D21E2E2162EE4F20620E0020720E06D
:10E77000120718F031E0C32ED12CC801B70127ECE5
:10E780003BE140E050E00F9441FE611571058105C9
:10E79000910519F485B1805885B98091C00087FD35
:10E7A00003C0C114D104A9F2A6014F5F5F4FC25E3E
:10E7B000DE4F59834883CE51D140C25EDE4F8881FF
:10E7C0009981CE51D140019711F00D9410FEC05D9A
:10E7D000DE4F19821882C053D14060E0C15DDE4F28
:10E7E0001882CF52D14088249924C35DDE4F19820C
:10E7F0001882CD52D140C05EDE4F188219821A8233
:10E800001B82C052D140CE5CDE4F188219821A8220
:10E810001B82C253D140EE24FF2487010BBFF701B6
:10E8200007911691C45CDE4F19830883CC53D14005
:10E830000D940BFEC25EDE4F28813981CE51D1404E
:10E840002130310509F52091C600C25EDE4F1982E4
:10E850001882CE51D14022C02F5F3F4F4F4F5F4FA4
:10E86000213082E138078AE7480780E0580780F0C6
:10E87000C45CDE4FE881F981CC53D140EF5FFF4F9C
:10E8800019F0EE27FF27099420E030E040E050E047
:10E890008091C00087FFE0CF2091C600C35DDE4FAE
:10E8A00048815981CD52D1404F5F5F4FC35DDE4FEC
:10E8B00059834883CD52D140213209F063C64A3092
:10E8C000510508F05FC60894811C911C53E0851621
:10E8D000910409F059C600E010E018C081E280936D
:10E8E000C6008091C00086FFFCCF8091C00080648C
:10E8F0008093C0002F5F3F4F2931310579F70F9486
:10E90000DCF10F5F1F4F0530110519F020E030E0FA
:10E91000E5CF10920A0210920B0210920C02109294
:10E920000D02109206021092070210920802109235
:10E930000902109202021092030210920402109235
:10E9400005028FEE90EE60E00F94F5F180E191EE1C
:10E9500060E00F94C2F18091C00087FFFCCF9091DE
:10E96000C600903608F09F759032B8F09093C600BC
:10E970008091C00086FFFCCF8091C00080648093AE
:10E98000C000A0E2A093C6008091C00086FFFCCF2B
:10E990008091C00080648093C000983409F4D7C18E
:10E9A0009934B8F4923409F459C1933458F490333B
:10E9B00019F1903308F4E3C59F33A1F1903409F0C5
:10E9C000DEC5BDC0953409F470C1963409F0D7C5D1
:10E9D00098C1923509F42BC2933538F49C3409F46C
:10E9E000F5C1913509F0CBC518C2963509F445C279
:10E9F000993509F0C4C567C483E792EE62E00F94CD
:10EA0000F5F110920602109207021092080210927D
:10EA1000090210920A0210920B0210920C0210923C
:10EA20000D0213C18FE792EE62E00F94F5F18FEEC5
:10EA300090EE60E00F94F5F181E291EE60E00F94CA
:10EA4000C2F187EB91EE60E00F94F5F180E391EE77
:10EA500060E00F94C2F184EE90EE60E00F94F5F167
:10EA60008FE391EE60E00F94C2F186E090E061E008
:10EA700070E00F9434F20F94DCF18DE591EE60E0DC
:10EA80000F94C2F189EC91EE60E00F94F5F18EE401
:10EA900091EE60E00F94C2F183EC91EE60E00F9490
:10EAA000F5F18CE691EE60E00F94C2F18EE10F94E7
:10EAB0000DF288E90F940DF281E00F940DF20F949E
:10EAC000DCF18BE791EE60E00F94C2F119E0E0E039
:10EAD000F0E010935700E4918E2F0F940DF20F94F5
:10EAE000DCF18AE891EE60E00F94C2F1E3E0F0E03F
:10EAF00010935700E4918E2F0F940DF20F94DCF1D8
:10EB000089E991EE60E00F94C2F1E2E0F0E0109349
:10EB10005700E4918E2F0F940DF20F94DCF188EAE8
:10EB200091EE60E00F94C2F1E1E0F0E01093570045
:10EB30001491812F0F940DF20F94DCF107CF8BE825
:10EB400092EE62E00F94F5F18BE492EE60E00F94A8
:10EB5000F5F10F94DCF100E010E019C0C8016F2D51
:10EB60000F947FFEFF2031F489E492EE60E00F9471
:10EB7000C2F10BC0F092C6008091C00086FFFCCFAE
:10EB80008091C00080648093C0000F5F1F4FC80158
:10EB900081519F41A0E0B0E0ABBFFC01F790BAE229
:10EBA000FB1621F0E2E000301E07C1F60F94DCF105
:10EBB0000F94DCF187E592EE60E00F94F5F10F948D
:10EBC000DCF1CC24DD2400E010E01EC0C8010F946D
:10EBD00077FEF82E882331F489E492EE60E00F94FA
:10EBE000C2F10BC08093C6008091C00086FFFCCFAD
:10EBF0008091C00080648093C000FE1419F00894D6
:10EC0000C11CD11C0F5F1F4FC80181519F41A0E063
:10EC1000B0E0ABBFFC01E790FAE2EF1621F022E092
:10EC20000030120799F60F94DCF10F94DCF182E6C4
:10EC300092EE60E00F94C2F1C60161E070E00F94C3
:10EC400034F20F94DCF10F94DCF110920202109276
:10EC50000302109204021092050278CE89E992EE26
:10EC600062E00F94F5F1279A2F9A16C02F9880E052
:10EC700090E0E0EDF7E03197F1F7019684369105E9
:10EC8000C1F72F9A80E090E0E0EDF7E03197F1F7DF
:10EC9000019684369105C1F78091C00087FFE6CFC9
:10ECA0008091C00087FFFCCF64C485EA92EE62E0E9
:10ECB0000F94F5F140910202509103026091040219
:10ECC0007091050281E020E10F9491F2809102029F
:10ECD00090910302A0910402B091050280509F4FD1
:10ECE000AF4FBF4F8093020290930302A0930402A0
:10ECF000B093050280509041A040B04008F426CE69
:10ED0000A4CF83EB92EE62E00F94F5F140910602FE
:10ED100050910702609108027091090280E020E1A1
:10ED20000F9491F28091060290910702A09108023F
:10ED3000B091090280509F4FAF4FBF4F80930602A2
:10ED400090930702A0930802B0930902FFCD80ECD4
:10ED500092EE62E00F94F5F183E792EE60E00F949B
:10ED6000F5F18FE792EE60E00F94F5F18BE892EE0B
:10ED700060E00F94F5F189E992EE60E00F94F5F10F
:10ED800085EA92EE60E00F94F5F183EB92EE60E09D
:10ED90000F94F5F180EC92EE60E00F94F5F187ECC2
:10EDA00092EE60E00F94F5F188ED92EE60E00F9442
:10EDB000F5F18FED92EE60E00F94F5F18AEE92EEB0
:10EDC00060E00F94F5F183E093EEBDCD87EC92EE19
:10EDD00062E00F94F5F181E40F947BF282E40F94EA
:10EDE0007BF283E40F947BF284E40F947BF285E45E
:10EDF0000F947BF286E40F947BF287E40F947BF20E
:10EE000088E40F947BF28AE40F947BF28BE40F94F6
:10EE10007BF28CE40F947BF299CD88ED92EE62E068
:10EE20000F94F5F1772473948824992409C48FED05
:10EE300092EE62E00F94F5F140910A0250910B02BC
:10EE400060910C0270910D0282E020E10F9491F22A
:10EE500080910A0290910B02A0910C02B0910D02D8
:10EE600080509F4FAF4FBF4F80930A0290930B0289
:10EE7000A0930C02B0930D0269CD8AEE92EE62E08F
:10EE80000F94F5F184EE90EE60E00F94F5F18FECC5
:10EE900091EE60E00F94F5F1662477244301CC5D98
:10EEA000DE4F19821882C452D140D401C301B695F5
:10EEB000A79597958795CA5DDE4F88839983AA8326
:10EEC000BB83C652D140CC5DDE4FA881B981C4520C
:10EED000D1401196CC5DDE4FB983A883C452D14096
:10EEE000CD0162E070E00F9434F2B0E2B093C6005E
:10EEF0008091C00086FFFCCF8091C0008064809329
:10EF0000C000EDE2E093C6008091C00086FFFCCF18
:10EF10008091C00080648093C000F0E2F093C6004E
:10EF20008091C00086FFFCCF8091C00080648093F8
:10EF3000C000CA5DDE4FE880F9800A811B81C6529D
:10EF4000D140BB27A12F902F8F2D0F940DF2CA5DBA
:10EF5000DE4F8881C652D1400F940DF2B0E2FB2EF5
:10EF6000F092C6008091C00086FFFCCF8091C00067
:10EF700080648093C0000DE30093C6008091C000C0
:10EF800086FFFCCF8091C00080648093C00010E2B7
:10EF90001093C6008091C00086FFFCCF8091C00016
:10EFA00080648093C0008BBEF3012791C65DDE4F65
:10EFB0002883CA52D140A22EBB24CC24DD2408943D
:10EFC000611C711C811C911C8BBEF3018791282E42
:10EFD0003324442455240894611C711C811C911C09
:10EFE0008BBEF3013791C55DDE4F3883CB52D140E4
:10EFF0000894611C711C811C911C8BBEF30147910C
:10F00000C45DDE4F4883CC52D140ADEFEA2EAFEF66
:10F01000FA2EAFEF0A2FAFEF1A2F6E0C7F1C801E57
:10F02000911E142D032DF22CEE24EA0CFB1C0C1D5A
:10F030001D1D0F940DF220E22093C6008091C000A8
:10F0400086FFFCCF8091C00080648093C000C65DC5
:10F05000DE4F8881CA52D1400F940DF230E23093D6
:10F06000C6008091C00086FFFCCF8091C000806404
:10F070008093C000C45DDE4F8881CC52D1400F9494
:10F080000DF240E24093C6008091C00086FFFCCFA5
:10F090008091C00080648093C000C55DDE4F888190
:10F0A000CB52D1400F940DF250E25093C6008091A4
:10F0B000C00086FFFCCF8091C00080648093C000B8
:10F0C0008FEFE8168FEFF80680E0080780E018075A
:10F0D00031F484E092EE60E00F94C2F1DFC0D80119
:10F0E000C7018070907CA070B0708050904CA040A0
:10F0F000B040D1F52FEF3FE340E050E0E222F322B1
:10F1000004231523CA5DDE4FA880B980CA80DB8046
:10F11000C652D140AE0CBF1CC01ED11EAA0CBB1CD7
:10F12000CC1CDD1C8EE092EE60E00F94C2F1BB2798
:10F13000A12F902F8F2D0F940DF28E2D0F940DF285
:10F1400030E23093C6008091C00086FFFCCF8091F2
:10F15000C00080648093C0004EE34093C60080915D
:10F16000C00086FFFCCF87C08EE09EEFA0E0B0E03D
:10F17000E822F9220A231B239CE0E91694E9F90608
:10F1800090E0090790E0190709F088C0C45DDE4FE0
:10F19000A881CC52D140EA2EFF2400E010E0102FCD
:10F1A0000F2DFE2CEE24C55DDE4FB881CB52D14031
:10F1B000EB0EF11C011D111DD601C501817090706F
:10F1C000A070B070DC0199278827E80EF91E0A1F8D
:10F1D0001B1F20EF30E040E050E0A222B322C42207
:10F1E000D52241E1AA0CBB1CCC1CDD1C4A95D1F7F1
:10F1F000EA0CFB1C0C1D1D1D81E090E0A0E0B0E0BE
:10F20000282239224A225B2235E1220C331C441C7D
:10F21000551C3A95D1F7E20CF31C041D151D57013E
:10F220006801AA0CBB1CCC1CDD1C85E192EE60E0E1
:10F230000F94C2F1C801AA27BB270F940DF2BB2778
:10F24000A12F902F8F2D0F940DF28E2D0F940DF274
:10F2500090E29093C6008091C00086FFFCCF809121
:10F26000C00080648093C000AEE3A093C60080918C
:10F27000C00086FFFCCF8091C00080648093C000F6
:10F28000C601AA27BB270F940DF2BB27AD2D9C2DDD
:10F290008B2D0F940DF28A2D0F940DF20F94DCF14B
:10F2A000CC5DDE4FE881F981C452D140F99709F471
:10F2B0004DCBF4E0EF2EF12C012D112D6E0C7F1CA7
:10F2C000801E911EF2CD83E093EE62E00F94F5F183
:10F2D0008AE192EE60E00F94C2F18091C00087FF56
:10F2E000FCCF1091C6001F751093C6008091C0001E
:10F2F00086FFFCCF8091C00080648093C0000F9493
:10F30000DCF1812F81548A3108F036C1163409F4BA
:10F3100095C0173490F4133409F44EC0143430F40B
:10F320001134F1F0123409F01DC130C0143409F465
:10F3300059C0153409F016C16BC01A3409F4C4C0A1
:10F340001B3438F4173409F48FC0183409F00AC19B
:10F35000A1C01B3409F4D2C01C3409F003C1E8C0B9
:10F360008FEF81B90DC082B1809582B980E090E0C5
:10F37000E0EDF7E03197F1F70196883C9105C1F790
:10F380008091C00087FFEFCF12B8EFC08FEF84B934
:10F390000DC085B1809585B980E090E0E0EDF7E0A3
:10F3A0003197F1F70196883C9105C1F78091C00033
:10F3B00087FFEFCF15B8D9C08FEF87B90DC088B1DF
:10F3C000809588B980E090E0E0EDF7E03197F1F7C3
:10F3D0000196883C9105C1F78091C00087FFEFCF6F
:10F3E00018B8C3C08FEF8AB90DC08BB180958BB9A7
:10F3F00080E090E0E0EDF7E03197F1F70196883C8E
:10F400009105C1F78091C00087FFEFCF1BB8ADC059
:10F410008FEF8DB90DC08EB180958EB980E090E0F0
:10F42000E0EDF7E03197F1F70196883C9105C1F7DF
:10F430008091C00087FFEFCF1EB897C08FEF80BBD1
:10F440000DC081B3809581BB80E090E0E0EDF7E0F6
:10F450003197F1F70196883C9105C1F78091C00082
:10F4600087FFEFCF11BA81C08FEF83BB0DC084B38C
:10F47000809584BB80E090E0E0EDF7E03197F1F714
:10F480000196883C9105C1F78091C00087FFEFCFBE
:10F4900014BA6BC08FEF809301010FC080910201FD
:10F4A00080958093020180E090E0E0EDF7E03197F5
:10F4B000F1F70196883C9105C1F78091C00087FF64
:10F4C000EDCF1092020151C08FEF809304010FC065
:10F4D0008091050180958093050180E090E0E0ED4A
:10F4E000F7E03197F1F70196883C9105C1F78091DB
:10F4F000C00087FFEDCF1092050137C08FEF8093DA
:10F5000007010FC08091080180958093080180E079
:10F5100090E0E0EDF7E03197F1F70196883C910536
:10F52000C1F78091C00087FFEDCF109208011DC088
:10F530008FEF80930A010FC080910B01809580931B
:10F540000B0180E090E0E0EDF7E03197F1F70196F4
:10F55000883C9105C1F78091C00087FFEDCF1092E4
:10F560000B0103C085E292EEEEC98091C00087FFD7
:10F57000FCCF8091C600EAC988E392EEE4C98CE131
:10F5800091EEE1C988249924933011F1943028F444
:10F59000913089F09230B8F408C0953061F195301F
:10F5A000F0F0963009F048C043C02B3109F042C951
:10F5B00091E06BE13FC96227C15DDE4F2883CF52E6
:10F5C000D14092E037C9B22FA0E0622793E032C960
:10F5D000822F90E0A82BB92B622794E02BC92E3004
:10F5E00009F039C3622795E0C05DDE4F19821882A9
:10F5F000C053D1401FC9E1E0F0E0EC0FFD1FC05D3A
:10F60000DE4F08811981C053D140E00FF11F2083E4
:10F610000F5F1F4FC05DDE4F19830883C053D14079
:10F6200062270A171B0709F005C9D80196E002C92D
:10F63000261709F010C303C0973009F0FBC87724E0
:10F640009981933109F412C19431C8F4963009F4C8
:10F65000D8C0973050F4923009F406C1933009F4C1
:10F660006DC0913009F059C253C0913109F477C08F
:10F67000923108F0BBC0903109F04FC2F5C098310B
:10F6800009F487C0993150F4953109F4EFC09531F0
:10F6900008F4C6C1963109F040C2C2C19A3109F4DA
:10F6A0006CC09A3108F491C09B3109F45BC09D3164
:10F6B00009F033C29D81903359F48F81882311F46E
:10F6C0009EE11CC0813011F091E018C098E916C08D
:10F6D000892F807591F0903539F4E0E0F0E089E011
:10F6E0008093570094910AC0983539F4E3E0F0E034
:10F6F00089E080935700949101C090E01A821B82A8
:10F700008D818C831D829E831F8227E030E009C299
:10F710001A8288E08B8381E48C8386E58D8382E581
:10F720008E8389E48F8383E5888780E589878FE5E9
:10F730008A8782E38B872BE030E0F3C18A818139AD
:10F7400041F0823941F0803911F48FE005C080E04A
:10F7500003C082E001C08AE01A828B8344C0772410
:10F76000739482C08D81882311F48EE12CC0813086
:10F7700011F081E028C088E926C01A82E1E0F0E0BB
:10F7800089E08093570084918B831C8224E030E0D1
:10F79000C8C18B81803589F48C81883039F4E2E0EE
:10F7A000F0E089E08093570084910DC0E0E0F0E044
:10F7B00089E080935700849106C0E3E0F0E089E09F
:10F7C0008093570084911A82DFCF8D81836C99E0FA
:10F7D000E1E0F0E0082E90935700E89507B600FCB2
:10F7E000FDCF1A821B8223E030E09BC180EC8A832C
:10F7F000CE5CDE4F188219821A821B82C253D1401E
:10F800008EC18A8190E0A0E0B0E0582F44273327D2
:10F8100022278B8190E0A0E0B0E0DC0199278827C7
:10F82000282B392B4A2B5B2B8D8190E0A0E0B0E098
:10F83000282B392B4A2B5B2B8C8190E0A0E0B0E089
:10F84000BA2FA92F982F8827282B392B4A2B5B2BCF
:10F85000220F331F441F551FC05EDE4F288339839C
:10F860004A835B83C052D1401A8259C13A81C95C34
:10F87000DE4F3883C753D140CA5CDE4F1882C6536F
:10F88000D1408B81C82EDD24CA5CDE4F488159816E
:10F89000C653D140C42AD52A933109F082C0CE5C28
:10F8A000DE4F88819981AA81BB81C253D1408050AB
:10F8B000904CA340B04030F583E0CE5CDE4FE88052
:10F8C000F9800A811B81C253D140F70100935B008C
:10F8D00080935700E89507B600FCFDCFCE5CDE4F65
:10F8E000088119812A813B81C253D14000501F4FAA
:10F8F0002F4F3F4FCE5CDE4F088319832A833B8313
:10F90000C253D140C05EDE4F488159816A817B81FC
:10F91000C052D140DE011B9631E08C9111962C91A2
:10F9200011971296C75CDE4F2883C953D140C85C3B
:10F93000DE4F1882C853D14090E0C85CDE4FE881AA
:10F94000F981C853D1408E2B9F2B0C01FA01609393
:10F950005B0030935700E89511244E5F5F4F6F4F67
:10F960007F4F0EEFE02E0FEFF02ECE0CDF1CC114F8
:10F97000D10499F685E0C05EDE4F088119812A81A5
:10F980003B81C052D140F80120935B008093570027
:10F99000E89507B600FCFDCF81E180935700E8951C
:10F9A00035C0C05EDE4F88819981AA81BB81C0527B
:10F9B000D140B695A795979587957C018601ABE0D8
:10F9C000AA2EB12CAC0EBD1E0BC0D5016D915D01F0
:10F9D000C7010F947FFE0894E11CF11C01501040F8
:10F9E0000115110591F7A60160E070E0440F551F65
:10F9F000661F771FC05EDE4FE880F9800A811B8199
:10FA0000C052D1404E0D5F1D601F711F1A82C05E33
:10FA1000DE4F488359836A837B83C052D1407FC0C5
:10FA2000FA80C55CDE4FF882CB53D140C65CDE4F16
:10FA30001882CA53D1408B81C82EDD24C65CDE4FAC
:10FA400008811981CA53D140C02AD12A1A828981DA
:10FA5000BE016D5F7F4F843121F59601C05EDE4FA0
:10FA6000E880F9800A811B81C052D1400BBFF701A9
:10FA700087919691DB018C9311969C936E5F7F4FDB
:10FA8000D801C7010296A11DB11DC05EDE4F88835B
:10FA90009983AA83BB83C052D14022503040F1F6F3
:10FAA00036C0C05EDE4F288139814A815B81C052F9
:10FAB000D1400894C108D108760100E010E0089414
:10FAC000C11CD11C0894E11CF11C011D111DE20E8A
:10FAD000F31E041F151F21BDBB27A52F942F832FB5
:10FAE00082BD2F5F3F4F4F4F5F4FF89A80B5DB01CC
:10FAF0008D93BD012E153F054007510761F7C05E8C
:10FB0000DE4F288339834A835B83C052D1409601FC
:10FB10002D5F3F4FFB01108204C080EC8A8322E0FE
:10FB200030E08BE18093C6008091C00086FFFCCF5F
:10FB30008091C00080648093C000C15DDE4FF88179
:10FB4000CF52D140F093C6008091C00086FFFCCF19
:10FB50008091C00080648093C000432F3093C60022
:10FB60008091C00086FFFCCF8091C00080648093AC
:10FB7000C000922F2093C6008091C00086FFFCCF6A
:10FB80008091C00080648093C0008EE08093C600A6
:10FB90008091C00086FFFCCF8091C000806480937C
:10FBA000C00065E1C15DDE4FE880CF52D1406E25D7
:10FBB00069276427FE01319610C090819093C6009A
:10FBC0008091C00086FFFCCF31968091C000806498
:10FBD0008093C0006927215030402115310569F715
:10FBE0006093C6008091C00086FFFCCF8091C0006A
:10FBF00080648093C00085B1805885B9772081F4F6
:10FC0000C15DDE4F0881CF52D1400F5FC15DDE4F35
:10FC10000883CF52D14090E0A0E0B0E00D941AF4F8
:10FC200027982F9880E090E020ED37E0F901319798
:10FC3000F1F7019684369105C9F700008091C00064
:10FC40008D7F8093C00081E180935700E895EE2777
:10FC5000FF270994FFCF90E00D941AF497FB092E2B
:10FC600007260AD077FD04D02ED006D000201AF443
:10FC7000709561957F4F0895F6F7909581959F4F08
:10FC80000895A1E21A2EAA1BBB1BFD010DC0AA1FDD
:10FC9000BB1FEE1FFF1FA217B307E407F50720F0F5
:10FCA000A21BB30BE40BF50B661F771F881F991F70
:10FCB0001A9469F760957095809590959B01AC01B9
:10FCC000BD01CF010895AA1BBB1B51E107C0AA1FAC
:10FCD000BB1FA617B70710F0A61BB70B881F991FED
:10FCE0005A95A9F780959095BC01CD010895F99991
:10FCF000FECF92BD81BDF89A992780B50895262F31
:10FD0000F999FECF1FBA92BD81BD20BD0FB6F89400
:0EFD1000FA9AF99A0FBE01960895F894FFCF63
:00000001FF
